:1070000055C00000B4C00000B2C00000B0C0000015
:10701000AEC00000ACC00000AAC00000A8C00000C4
:10702000A6C00000A4C00000EAC50000A0C0000087
:107030009EC000009CC000009AC0000098C00000E4
:1070400096C0000094C0000092C0000090C00000F4
:1070500005C200008CC000008AC0000088C000008B
:1070600086C0000084C0000082C0000080C0000014
:107070007EC000007CC000007AC0000078C0000024
:1070800076C0000074C0000072C0000070C0000034
:107090006EC000006CC000006AC0000068C0000044
:1070A00066C0000064C0000062C0000011241FBE62
:1070B000CFEFDAE0DEBFCDBF83E090E088D480FD83
:1070C00012C004B601FE0AC081E020916F01309128
:1070D000700122343C4D19F080E001C081E094B78A
:1070E0009D7F94BF11C004B603FE0AC081E02091C9
:1070F0006F013091700122343C4D19F080E001C0E5
:1071000080E094B7977F94BF20E030E0F90145918B
:1071100054918823B9F04F3F5F4FA1F084B7877F28
:1071200084BF0FB6F894A895809160008861809321
:107130006000109260000FBE1092700110926F01FB
:10714000F901099511E0A0E0B1E0EAE2FFE702C031
:1071500005900D92A235B107D9F721E0A2E5B1E083
:1071600001C01D92AF36B207E1F739D1DCC648CF76
:107170008823C9F09091F3002091F20030E0392B80
:10718000232B69F49091E8009B7F9093E800909105
:10719000E80092FD06C09EB39111F9CF04C0909112
:1071A000F1008150E5CF0895EAE5F1E035812481D1
:1071B000938182819093540180935501C9019093EA
:1071C0005201809353010895CF92DF92EF92FF9284
:1071D0001F93CF93DF9300D01F92CDB7DEB790916E
:1071E000640180915A019923D1F0843049F480914F
:1071F0005B01811108C080915C018F3F21F455C073
:10720000853009F4A3C08AE08093000183E0809375
:1072100062018091EB0080628093EB00D5C08430E6
:1072200009F443C028F4813051F08330D9F0CCC048
:10723000853009F48BC0863009F4B3C0C5C0109105
:107240005B01123008F0C0C0AFDF111109C06091BE
:1072500054017091550120915601822F90E044D342
:1072600085E007C080915B01982F9D7F29F49CDF0A
:1072700089E080930001A8C0813009F0A5C0E0E05A
:10728000F0E084918F3F59F010925601F093550130
:10729000E09354018AE08093000185E093C0319629
:1072A000E11520E7F20769F78FC080915B01833019
:1072B00091F581E080936301E0916001F0916101BB
:1072C00080915C01309761F0813009F07DC0909130
:1072D0005F0180915E01909357018093580174C0C3
:1072E000811111C082E49CED9093700180936F0135
:1072F0009CE088E10FB6F894A895809360000FBEDB
:107300009093600061C085919491019609F05CC0F2
:107310001092010159C0811157C080915C018F3FCB
:1073200009F052C0C12CD12C7601C701B601DCD2C4
:1073300080E8C80ED11CE11CF11CC11420E7D20664
:10734000E104F10491F7109264013EC080910201C2
:1073500090910301A091040189839A83AB8380916A
:107360005C0190915B01911107C0833038F5FE01FB
:10737000E80FF11D818112C0913031F5813359F050
:1073800020F48033D9F488E509C0803631F08136A5
:10739000A9F487E803C08EE101C085E98093590113
:1073A00013C080915B01833079F480915C0181117D
:1073B0000BC080915D018093560106C08AE08093E6
:1073C000000188E0809362010F900F900F90DF9191
:1073D000CF911F91FF90EF90DF90CF90089584B7E9
:1073E000877F84BF0FB6F894A8958091600088616C
:1073F00080936000109260000FBE90E080E80FB6AE
:10740000F89480936100909361000FBEC1E0C5BF06
:1074100082E085BFD7D3C0936F0083E08093810063
:10742000789480910101882311F05BD5FACF809187
:1074300063018111FACF8FE99FE00197F1F700C056
:1074400000006DD310926F001092810081E085BF23
:1074500015BEE0915701F091580109951F920F92C6
:107460000FB60F9211240F900FBE0F901F9018951A
:107470005F926F927F928F929F92AF92BF92CF92C4
:10748000DF92EF92FF920F931F93CF93DF93809140
:1074900067018F77813209F0E5C180916D0190918C
:1074A0006E01909361018093600180916801833047
:1074B00009F492C158F48130D1F0823009F0D2C180
:1074C0008091E800877F8093E800F6C0853009F45A
:1074D000A9C108F49FC1863009F0C4C18091E800B9
:1074E000877F8093E80082E080930001ABC18091A8
:1074F000E800877F8093E80080916301882319F07A
:1075000063DE1092630180916001909161010097A8
:1075100061F12091E80022FD04C02EB32111F9CFC2
:10752000A1C12091F10020935A010197909361012C
:1075300080936001EBE5F1E02091F3008091F2008F
:1075400090E0922B892B81F08091F10081938091C2
:1075500060019091610101979093610180936001B6
:1075600021E0E036F20741F72FDE809100018530FF
:1075700009F09AC08091600190916101892B21F4FA
:1075800082E08093000190C08AE1F2DD0091540115
:1075900010915501802F8F71EBDDC0915201D09178
:1075A00053012196C01BD10B80915B0181116AC0F0
:1075B000D695C795680180915601E82EF12C7D2C57
:1075C000682E5F2C10E02097D9F12091F300809174
:1075D000F20090E0922B892BA9F021974091F100C5
:1075E0005091F100C701B601DFD11F5F460157017D
:1075F00082E0880E911CA11CB11C7501640110343D
:1076000071F40FC08091E8008B7F8093E800809137
:10761000E80082FDE2CF8EB38111F9CF23C120971C
:1076200091F6602F772D862D952D8ED1209759F2CA
:10763000C501B40159D1082D792C6A2C5B2CC2CF1D
:107640008091520190915301909355018093540180
:1076500029C02091F3008091F20090E0922B892BB9
:10766000A1F021976091F100809154019091550112
:1076700048D4809154019091550101969093550101
:1076800080935401209729F70DC08091E8008B7FEB
:107690008093E8008091E80082FDE3CF8EB38111F2
:1076A000F9CFE0C080E164DD8091E8008B7F91C07C
:1076B0008EB3882309F4D6C08091E80080FFF8CF0C
:1076C00080910001893091F08A3059F480915B01FA
:1076D000813039F490915401809155019093F100DB
:1076E00002C0809159018093F10070C02091540133
:1076F00030915501C0915201D09153012196C21B86
:10770000D30B80915B01811133C0D695C795C90118
:1077100020915601A22FB0E0219708F14091F3008B
:107720002091F20030E0342B2032310559F0FC0179
:10773000259134912093F1003093F1000296A11D20
:10774000B11DEACF2091E8002E7F2093E800209120
:10775000E80020FDECCF2EB32111F9CF83C080913A
:1077600052019091530190935501809354012BC085
:10777000823049F5209739F12091F3008091F20091
:1077800090E0922B809791F0809154019091550157
:10779000B0D38093F10080915401909155010196EE
:1077A00090935501809354012197E4CF8091E80094
:1077B0008E7F8093E8008091E80080FDE5CF8EB356
:1077C0008111F9CF4FC082E0809300018091E800E1
:1077D0008E7F8093E80036C08091E800877F809399
:1077E000E8008091E80080FD04C08EB38111F9CFDC
:1077F00039C0809162018093F1001092F1001092E3
:10780000F1001092F100809100018093F10010923C
:10781000F100DCCF8091E800877F8093E800109230
:10782000620110C08091E800877F8093E80080911A
:10783000E80080FD04C08EB38111F9CF13C08091A0
:10784000000151CFDF91CF911F910F91FF90EF90E9
:10785000DF90CF90BF90AF909F908F907F906F9070
:107860005F9040C1DF91CF911F910F91FF90EF90FA
:10787000DF90CF90BF90AF909F908F907F906F9050
:107880005F900895292F30E02230310559F02330E0
:10789000310569F021303105F9F482E190E020E40E
:1078A00031E01EC08BE190E025E231E019C0882371
:1078B00049F0813061F0823079F486E090E025E093
:1078C00031E00EC084E090E021E231E009C082E1C5
:1078D00090E02DE031E004C080E090E020E030E076
:1078E000FA013183208308950F931F93611520E7D8
:1078F00072078105910570F441E08B019C010F77BF
:10790000112722273327012B022B032B09F040E0FC
:10791000242F01C020E020FF14C02FB7F89407B631
:1079200000FCFDCFF999FECF33E0FB013093570007
:10793000E89507B600FCFDCF91E190935700E895DC
:107940002FBF1F910F9108950F931F93611520E78B
:1079500072078105910570F441E08B019C010F775E
:10796000112722273327012B022B032B09F040E09C
:10797000242F01C020E020FF14C02FB7F89407B6D1
:1079800000FCFDCFF999FECF35E0FB0130935700A5
:10799000E89507B600FCFDCF91E190935700E8957C
:1079A0002FBF1F910F91089507B600FCFDCFF999E5
:1079B000FECF21E0FB010A0120935700E895112436
:1079C000089521E2FC01209357008491089529E055
:1079D000FC012093570084910895E1E0F0E089E0F4
:1079E00080935700849108959FB7F89407B600FCE0
:1079F000FDCFF999FECF809529E0E1E0F0E0082E77
:107A000020935700E8959FBF089520916D01309114
:107A10006E012617370748F06115710539F420917A
:107A2000E8002E7F2093E80001C0B901FC0120E0AE
:107A30006115710571F18EB38823E9F18530E9F1A3
:107A40008091E80083FD3BC08091E80082FD2DC05D
:107A50008091E80080FFECCF2091F3008091F2004C
:107A600090E0922B6115710551F08032910538F448
:107A700021912093F100615071090196F3CF21E02B
:107A8000809709F020E08091E8008E7F8093E800E5
:107A9000CFCF2111D0CF09C08EB3882361F08530BC
:107AA00061F08091E80083FD0AC08091E80082FFC8
:107AB000F3CF80E0089582E0089583E0089581E0A7
:107AC0000895EBEEF0E0808181608083EDEEF0E0E0
:107AD00010826093EC0040838091EE00881F88271D
:107AE000881F08958091670187FF0FC08091E8008B
:107AF00082FD04C08EB38111F9CF10C08091E800DF
:107B00008B7F0AC08EB3882349F08091E80080FF04
:107B1000F9CF8091E8008E7F8093E800089562D0CD
:107B200069D0E0EEF0E0808181608083E8EDF0E0F4
:107B300080818F77808319BCA7EDB0E08C918E7F18
:107B40008C9380818F7E80831092660108950F93BD
:107B50001F93CF93DF9346D04DD0C8EDD0E08881FE
:107B60008F77888388818068888388818F7D8883E8
:107B700019BC1EBA1092650100EE10E0F801808178
:107B80008B7F808388818160888342E260E080E02F
:107B900098DFE1EEF0E080818E7F8083E2EEF0E01E
:107BA000808181608083808188608083F80180810A
:107BB0008E7F8083888180618883DF91CF911F9140
:107BC0000F910895E8EDF0E080818F7E8083E7EDEE
:107BD000F0E080818160808384E082BF81E08093D7
:107BE0006601B5CFE8EDF0E080818E7F8083109252
:107BF000E20008951092DA001092E10008951F92B9
:107C00000F920FB60F9211242F933F934F935F93D0
:107C10006F937F938F939F93AF93BF93EF93FF9354
:107C20008091DA0080FF1BC08091D80080FF17C0D0
:107C30008091DA008E7F8093DA008091D90080FFF6
:107C40000BC080E189BD82E189BD09B400FEFDCF92
:107C500081E08EBB45D103C019BC1EBA41D18091D1
:107C6000E10080FF17C08091E20080FF13C0809187
:107C7000E2008E7F8093E2008091E2008061809339
:107C8000E2008091D80080628093D80019BC85E022
:107C90008EBB26D18091E10084FF2EC08091E2004E
:107CA00084FF2AC080E189BD82E189BD09B400FE5C
:107CB000FDCF8091D8008F7D8093D8008091E10026
:107CC0008F7E8093E1008091E2008F7E8093E200BE
:107CD0008091E20081608093E200809165018823B9
:107CE00011F084E007C08091E30087FD02C081E0CD
:107CF00001C083E08EBBF4D08091E10083FF21C0FE
:107D00008091E20083FF1DC08091E100877F809316
:107D1000E10082E08EBB109265018091E1008E7FD0
:107D20008093E1008091E2008E7F8093E200809159
:107D3000E20080618093E20042E260E080E0C1DE28
:107D4000CFD0FF91EF91BF91AF919F918F917F9194
:107D50006F915F914F913F912F910F900FBE0F90B8
:107D60001F9018951F93CF93DF9300D0CDB7DEB748
:107D7000E7E6F1E08091F100819381E0EF36F807CA
:107D8000C9F776DB8091E80083FF96C08091670198
:107D9000909168019630E1F128F4992351F09530E3
:107DA000B1F08AC0983009F455C0993009F464C024
:107DB00083C08D7F803809F07FC08091E800877F85
:107DC0008093E8001092F1001092F1004EC08111F2
:107DD00073C0109169011F778091E3008078812B37
:107DE0008093E3008091E800877F8093E8007ADE4B
:107DF0008091E80080FFFCCF8091E3008068809351
:107E0000E300111102C082E001C083E08EBB54C0C8
:107E10008058823008F050C060916B0170916C0105
:107E2000AE014F5F5F4F8091690190916A012ADD39
:107E3000BC01892B09F440C09091E800977F909392
:107E4000E80089819A81E1DD8091E8008B7F809351
:107E5000E80032C0803881F58091E800877F809308
:107E6000E800809165018093F1008091E8008E7FA9
:107E70008093E80037DE20C081111EC08091690127
:107E800090916A0199270297BCF48091E800877F5E
:107E90008093E800809169018093650123DE8091E1
:107EA0006501811106C08091E30087FD02C081E079
:107EB00001C084E08EBB14D08091E80083FF0AC02B
:107EC0008091E800877F8093E8008091EB008062DA
:107ED0008093EB000F900F90DF91CF911F91089549
:107EE00008958EB3882321F08091E80083FD3ACF76
:107EF0000895F999FECF92BD81BDF89A992780B572
:107F00000895262FF999FECF92BD81BDF89A019769
:107F100000B4021639F01FBA20BD0FB6F894FA9AD1
:0A7F2000F99A0FBE0895F894FFCF00
:107F2A00020120DCFB060349006F00000012035324
:107F3A000079007300740065006D00370036000098
:107F4A00000403090409021B00010100803209042C
:107F5A00000000FE0102000921030000000C1001CC
:107F6A001201100100000020EB03F42F00000102AF
:027F7A00000104
:107FA000A3CCD2CC01CD0DCD12CD17CD1DCD0895D2
:087FB000089508950895089555
:107FE000DFCFDFCFDFCFDFCFDFCFDFCFDFCFDFCF21
:087FF000DFCFDFCFDFCFDFCFD1
:087FF8000070000010DFFBDC4B
:040000030000700089
:00000001FF
