:100000000C940F010C9447010C9447010C94470188
:100010000C9447010C9447010C9447010C94470140
:100020000C9447010C9447010C940A160C94D716B3
:100030000C9447010C9447010C9447010C94470120
:100040000C9447010C9447010C9447010C94470110
:100050000C9447010C94A80C0C9447010C94470194
:100060000C9447010C9447010C9447010C944701F0
:100070000C9447010C9447010C9447010C944701E0
:100080000C9447010C9447010C9447010C944701D0
:100090000C9447010C9447010C9447010C944701C0
:1000A0000C9447010C9447010C9447016E616E005B
:1000B000696E660000407A10F35A00A0724E18096B
:1000C0000010A5D4E80000E87648170000E40B54BF
:1000D000020000CA9A3B000000E1F505000080968E
:1000E0009800000040420F000000A08601000000C0
:1000F000102700000000E80300000000640000007A
:1001000000000A00000000000100000000002C7642
:10011000D888DC674F0823DFC1DFAE59E1B1B7965D
:10012000E5E3E453C63AE651997696E8E6C28426BA
:10013000EB898C9B62ED407C6FFCEFBC9C9F40F296
:10014000BAA56FA5F490055A2AF75C936B6CF96712
:100150006DC11BFCE0E40D47FEF520E6B500D0EDD7
:10016000902E0300943577050080841E080000203F
:100170004E0A000000C80C333333330F986E1283DD
:100180001141EF8D2114893BE65516CFFEE6DB18B1
:10019000D1844B381BF77C1D901DA4BBE424203276
:1001A00084725E228100C9F124ECA1E53D2706039B
:1001B00049006F00000012035300790073007400BF
:1001C00065006D00370036000000040309040902D1
:1001D0003E00020100C03209040000010202FF00DB
:1001E0000524001001042402060524060001070569
:1001F00082030800FF09040100020A00000007054D
:100200000402100005070583021000051201100109
:10021000020000080912761701000102DC01112416
:100220001FBECFEFDAE0DEBFCDBF04B603FE18C0BD
:100230008091EE069091EF06A091F006B091F10644
:10024000853E9F4AAC4DBA4B59F41092EE0610927F
:10025000EF061092F0061092F106E0E0F8E309953F
:1002600015E0A0E0B1E0E8E0F7E402C005900D92EF
:10027000AA31B107D9F726E0AAE1B5E001C01D9285
:10028000AE3EB207E1F70E9423150C9482230C9432
:1002900000002F923F924F925F926F927F928F92C7
:1002A0009F92AF92BF92CF92DF92EF92FF920F9305
:1002B0001F93CF93DF9300D000D0CDB7DEB74C01B2
:1002C00028013901342E252E69837A83FC82EB8242
:1002D000FC01868D978D01970297A0F0F70186A10A
:1002E00097A1892BA1F486A597A50E94C00B21E0B8
:1002F00090E0EB81FC8133A1381301C020E0A22EF5
:10030000B92E08C093E0A92EB12C60E004C082E0B1
:10031000A82EB12C61E0EB81FC8180A991A90E94FB
:10032000D20BEB81FC8184A195A1A816B90609F432
:100330004DC0B5A2A4A26685778580899189F1E038
:10034000AF16B104E1F068F032E0A316B10471F029
:10035000E3E0AE16B104C1F4EB81FC81048D158D90
:1003600015C0EB81FC810689178910C0EB81FC81E7
:100370006289738984899589008D118D07C0EB810D
:10038000FC81028D138D02C000E010E00E94841EEB
:100390009B01AC0160E070E48CE196E40E94A71D33
:1003A000F40164AF75AF86AF97AFB80180E090E01D
:1003B0000E94841E6B017C0182019301432D522D0A
:1003C00069817A81C401CC960E947D10F2E0AF165B
:1003D000B10481F5F401E05CFF4F2081318142815D
:1003E00053816481758186819781A0E00E94291DD7
:1003F00009F5EB81FC81608D718DF40182AD93ADC7
:100400009401245C3F4F49018617970721F4EB8143
:10041000FC816689778980E090E00E94841E6B01F0
:100420007C0182019301432D522D69817A81C4019F
:100430000E947D100F900F900F900F90DF91CF9141
:100440001F910F91FF90EF90DF90CF90BF90AF90F2
:100450009F908F907F906F905F904F903F902F90E4
:100460000895CF92DF92EF92FF92CF93DF93EC014A
:100470006A017B010E944F0E62E070E0CE010E9493
:10048000320FB701A601CE01DF91CF91FF90EF901F
:10049000DF90CF900C94950E0E947A1521E030E009
:1004A000811102C020E030E088279927821B930B3E
:1004B00008958F929F92AF92BF92CF92DF92EF9268
:1004C000FF920F931F93CF93DF93CDB7DEB72A9799
:1004D0000FB6F894DEBF0FBECDBFFC0109831A83AF
:1004E0002B833C834D835E836F837887FA86E9860E
:1004F00082809380A480B580C680D780E084F18418
:1005000089819A81AB81BC8188199909AA09BB09A3
:10051000E985FA85468D578D60A171A14817590765
:100520006A077B0710F460E00BC09401A501B601D7
:10053000C701A0E00E94291DC9F061E0E985FA85A4
:1005400082A993A92A960FB6F894DEBF0FBECDBF3D
:10055000DF91CF911F910F91FF90EF90DF90CF909F
:10056000BF90AF909F908F900C94D20B2A960FB6AD
:10057000F894DEBF0FBECDBFDF91CF911F910F91D9
:10058000FF90EF90DF90CF90BF90AF909F908F90B3
:1005900008954F925F926F927F928F929F92AF9247
:1005A000BF92CF92DF92EF92FF920F931F93CF9360
:1005B000DF93CDB7DEB7CA57D1090FB6F894DEBFC7
:1005C0000FBECDBF5C01CE0101960E94130882E2EE
:1005D000FE013196D50101900D928A95E1F7C50192
:1005E0000E941C08F50112A215A214A217A216A2BD
:1005F0008BEA94E00E94C70DF50191A780A7892B93
:1006000019F48BEA94E00BC083EB94E00E94C70DD1
:10061000F50193A782A7892B81F483EB94E09F9344
:100620008F938FEB93E09F938F930E9478220F908C
:100630000F900F900F9081E067C187E594E00E94D2
:10064000C70DF50195A784A7892B19F487E594E0D8
:10065000E6CF88ED93E00E946B0B3C01892B19F4E7
:1006600088ED93E015C183EF93E00E946B0B4C0182
:10067000892B19F483EF93E00BC187EF93E00E947D
:100680006B0B009719F487EF93E002C1F50177A691
:1006900066A691AA80AA93AB82AB8BEF93E00E94EF
:1006A0006B0B4C01892B19F48BEF93E0F1C08FEFAA
:1006B00093E00E946B0B3C01892B19F48FEF93E0C0
:1006C000E7C0F501C688D78804A515A56685778596
:1006D000808991890E94841E0E941E1E9F938F9381
:1006E0007F936F935F934F933F932F93E12CF12C64
:1006F0009301A40163E074E0CE0183960E94C709D0
:1007000088E5FE01B396D501D49601900D928A95A5
:10071000E1F7A50169E471E04501F4E38F0E911C56
:10072000C4010E94A30AF501EC56FE4F918280821B
:1007300088E094E00E946B0B4C010FB6F894DEBF8A
:100740000FBECDBF892B19F488E094E0A1C08CE0E6
:1007500094E00E946B0B3C01892B19F48CE094E02F
:1007600097C0F501C084D18400A511A5648175816D
:10077000868197810E94841E0E941E1E9F938F93E4
:100780007F936F935F934F933F932F93E12CF12CC3
:100790009301A40160E174E0CE0183960E94C70931
:1007A00088E5FE01B39645019CE8890E911CD401B1
:1007B00001900D928A95E1F7A50169E572E0C40107
:1007C0000E94A30AF501EA56FE4F9182808285E1DC
:1007D00094E00E946B0B4C010FB6F894DEBF0FBE85
:1007E000CDBF892B19F485E194E052C089E194E0F2
:1007F0000E946B0B3C01892B19F489E194E048C0FD
:10080000F501C084D18400A511A56481758186811C
:1008100097810E94841E0E941E1E9F938F937F9338
:100820006F935F934F933F932F93EE24E394F12CB8
:100830009301A4016DE174E0CE0183960E94C70983
:1008400028E5FE01B396C5018C519F4FDC01019054
:100850000D922A95E1F7F501E856FE4F91838083CA
:1008600082E294E00E946B0B4C010FB6F894DEBF5D
:100870000FBECDBF892B19F482E294E009C086E255
:1008800094E00E946B0B3C01892B39F486E294E0E2
:100890009F938F938CED93E0C6CE250194EC491A7B
:1008A0009EEF590AF501C084D18402A513A5648185
:1008B0007581868197810E94841E0E941E1E9F93CF
:1008C0008F937F936F935F934F933F932F93E12C7D
:1008D000F12C9301A4016AE274E0CE0183960E9498
:1008E000C70988E5FE01B396D20101900D928A9561
:1008F000E1F7F501E656FE4F518240820FB6F894BB
:10090000DEBF0FBECDBF80E0C658DF4F0FB6F894F4
:10091000DEBF0FBECDBFDF91CF911F910F91FF9032
:10092000EF90DF90CF90BF90AF909F908F907F908F
:100930006F905F904F9008950F931F93CF93DF9325
:10094000EC01488159816A817B8188A599A50E9423
:100950003102488159816A817B818AA59BA50E94C9
:1009600031024A855B856C857D858CA59DA50E949D
:10097000310260E08EA59FA50E94A80B61E08EA5C4
:100980009FA50E94D20B61E088A999A90E94A80B9B
:1009900060E088A999A90E94D20B61E08AA99BA96D
:1009A0000E94A80B60E08AA99BA90E94D20B8EA589
:1009B0009FA50E94C00B8BA38E010C561E4FC456E0
:1009C000DE4F0C171D0739F0F801819191918F01CD
:1009D0000E94610AF6CFDF91CF911F910F91089588
:1009E0002F923F924F925F926F927F928F929F923F
:1009F000AF92BF92CF92DF92EF92FF920F931F932D
:100A0000CF93DF9300D000D0CDB7DEB79C838B832C
:100A100009831A8319012A013B01460142E050E093
:100A20006FE274E0C7010E94E721892B09F02BC116
:100A300087010E5F1F4F44E050E062E374E0C8019D
:100A40000E94E721892B39F50B811C810C561E4F22
:100A5000CB80DC8084E6C81A8EEFD80A96E0E90ED7
:100A6000F11C0C151D0509F40EC1F801819191913D
:100A70008F019C838B83FC016081718144E050E095
:100A8000C7010E94E721892B61F7EB81FC8183A9D3
:100A90008F9382A936C044E050E060E474E0C8015E
:100AA0000E94E721892B09F088C0CB80DC80FCE61E
:100AB000CF1AFEEFDF0AAB80BC8084E6A81A8EEF67
:100AC000B80A87010A5F1F4FCA14DB0409F4DBC0B0
:100AD000F601819191916F019C838B83FC01608170
:100AE000718144E050E0C8010E94E721892B61F741
:100AF000F7018285811115C0EB81FC8183AD8F9355
:100B000082AD8F9387E394E09F938F939F928F9210
:100B10000E9400220F900F900F900F900F900F9057
:100B2000B6C01092E7061092E60640E150E060E0A1
:100B300070E0C7010A960E94F61F6B017C0180914C
:100B4000E6069091E706892B09F09DC0F1E1CF16EA
:100B5000F7E2DF06E104F10408F095C08981EB813A
:100B6000FC8182839A8193832482358246825782D4
:100B700060867186B60180E090E00E94841EEB8161
:100B8000FC81E05BFF4F20813181428153810E94D3
:100B9000A21D882309F47BC0C701B6010E94841EF0
:100BA0006B017C0109811A819101A201B3018B8142
:100BB0009C81CC960E947D106AC044E050E065E4C0
:100BC00074E0C8010E94E721892B39F5F70186817D
:100BD000811106C0EB81FC8187A18F9386A191CF03
:100BE0001092E7061092E60640E150E060E070E007
:100BF000C70106960E94F61F2091E6063091E7068F
:100C0000232B09F040C06230710581059105D8F5AC
:100C1000EB81FC8177A366A33AC048E050E06AE428
:100C200074E0C8010E94E721892B39F483E594E040
:100C30009F938F9389E594E067CF44E050E060E6AE
:100C400074E0C8010E94E721892B79F4EB81FC81D3
:100C500017A216A286A597A50E94C00B91E081114C
:100C600090E0EB81FC8193A312C044E050E065E684
:100C700074E0C8010E94E721892B29F481E0EB810F
:100C8000FC8182A304C0B4018AE694E003C0B401ED
:100C900084E794E00F900F900F900F90DF91CF9129
:100CA0001F910F91FF90EF90DF90CF90BF90AF908A
:100CB0009F908F907F906F905F904F903F902F907C
:100CC0000C944E226F927F928F929F92AF92BF921E
:100CD000CF92DF92EF92FF920F931F93CF93DF9308
:100CE000D02EC12EB22EA32E942E852E762E672EB8
:100CF0007C012CE6E21A2EEFF20AEC01C456DE4F1C
:100D0000EC16FD0679F00D2D1C2D2B2D3A2D492DBD
:100D1000582D672D762DF701819191917F010E94C9
:100D2000AC0AEECFDF91CF911F910F91FF90EF9022
:100D3000DF90CF90BF90AF909F908F907F906F90FB
:100D40000895EF92FF920F931F93CF93DF93EC01DF
:100D50008C010C561E4F7C0184E6E81A8EEFF80ACF
:100D60000E151F0539F0F801819191918F010E94B4
:100D70002F0BF6CF60E08EA59FA50E94A80B60E028
:100D80008EA59FA50E94D20B60E088A999A90E9418
:100D9000A80B60E088A999A90E94D20B60E08AA9FB
:100DA0009BA90E94A80B60E08AA99BA90E94D20B74
:100DB00088A599A50E944F0E8AA59BA50E944F0E5B
:100DC0008CA59DA5DF91CF911F910F91FF90EF9082
:100DD0000C944F0E4F925F926F927F928F929F92E0
:100DE000AF92BF92CF92DF92EF92FF920F931F9339
:100DF000CF93DF9384E395E00E94C9028111C9C0BB
:100E000080E1E4E2F5E0DF011D928A95E9F71092B6
:100E10002305109222058BE794E00E948E2284E342
:100E200095E00E949C040E945C150E94060D209390
:100E30001A0530931B0540931C0550931D056093C4
:100E40001E0570931F058093200590932105CAE825
:100E5000D4E00E94060D29013A014B015C0180910A
:100E60001A0590911B05A0911C05B0911D05A301C9
:100E70009201281B390B4A0B5B0BDA01C901893E31
:100E800033E09307A105B10570F0BF93AF939F9333
:100E90008F93DF93CF930E9478220F900F900F9043
:100EA0000F900F900F9040921A0550921B05609280
:100EB0001C0570921D0580921E0590921F05A09240
:100EC0002005B092210582019301A401B50184E3BC
:100ED00095E00E9462060E947F158091560581115F
:100EE00049C00E94761597FD42C02091220530919D
:100EF00023058D3071F5F901EC5DFA4F10820091F8
:100F00001A0510911B0520911C0530911D0540917B
:100F10001E0550911F05609120057091210580E00C
:100F2000C82E81E0D82E94E2E92E95E0F92E84E3D4
:100F300095E00E94F004409122055091230560E065
:100F400070E0C7010E94D72110922305109222055C
:100F50000EC0A9014F5F5F4F4031510540F45093DF
:100F6000230540932205F901EC5DFA4F80830E942E
:100F70007F156FCF0E94851584E395E00E94A1063E
:100F800086E994E00E948E220E945A1580E090E04B
:100F900002C081E090E0DF91CF911F910F91FF900F
:100FA000EF90DF90CF90BF90AF909F908F907F9009
:100FB0006F905F904F900895CF93C62F0E941F238C
:100FC0008F3F09F48C2FCF910895CF93DF93D62FC5
:100FD000C72F0E942D238F3F2FEF920711F0682F0C
:100FE00002C06D2F9C2F862FDF91CF9108950F9314
:100FF0001F93CF93DF938A01D62FC72F0E942723F9
:101000006F3F2FEF72078207920719F0AB01282F6D
:1010100003C0A8012D2F9C2FBA01822FDF91CF9101
:101020001F910F91089522E2E4E9F3E0DC010190C1
:101030000D922A95E1F70895CF93DF93EC0180E0BC
:1010400090E00E9427236F3F2FEF720782079207DD
:1010500029F0462F372F282F892F04C048EA31E680
:1010600020E080E0488339832A838B8384E090E00A
:101070000E9427236F3F2FEF72078207920729F004
:10108000462F372F282F892F04C048EE33E020E069
:1010900080E04C833D832E838F8368E873E188E092
:1010A00090E00E94E507998788878AE090E00E9497
:1010B00027236F3F2FEF72078207920729F0462FF1
:1010C000372F282F892F04C048E438EE21E080E034
:1010D0004A873B872C878D878EE090E00E942723EC
:1010E0006F3F2FEF72078207920729F0462F372FA5
:1010F000282F892F04C040E43DE023E080E04E87A4
:101100003F87288B898B82E190E00E9427236F3FE5
:101110002FEF72078207920729F0462F372F282FCB
:10112000892F04C040E83DE82BE580E04A8B3B8BEB
:101130002C8B8D8B6BEE70E086E190E00E94E507D2
:101140009F8B8E8B64EC79E088E190E00E94E5074C
:10115000998F888F6CEA7DE08AE190E00E94E50734
:101160009B8F8A8F60E177E28CE190E00E94E50737
:101170009D8F8C8F8EE190E00E9427236F3F2FEF91
:1011800072078207920729F0462F372F282F892FC1
:1011900004C040E836E928E980E04E8F3F8F28A35D
:1011A00089A3DF91CF910895CF93DF93EC0148811C
:1011B00059816A817B8180E090E00E9445234C81C7
:1011C0005D816E817F8184E090E00E944523688587
:1011D000798588E090E00E9451234A855B856C8583
:1011E0007D858AE090E00E9445234E855F85688971
:1011F00079898EE090E00E9445234A895B896C8959
:101200007D8982E190E00E9445236E897F8986E195
:1012100090E00E945123688D798D88E190E00E94D2
:1012200051236A8D7B8D8AE190E00E9451236C8D61
:101230007D8D8CE190E00E9451234E8D5F8D68A1E1
:1012400079A18EE190E0DF91CF910C9445230F932B
:101250001F93FC01008311832283338344835583CE
:101260006683778310861186128613861486158608
:1012700016861786108A1F910F9108952F923F921C
:101280004F925F926F927F928F929F92AF92BF9296
:10129000CF92DF92EF92FF920F931F93CF93DF9342
:1012A000CDB7DEB727970FB6F894DEBF0FBECDBF20
:1012B000FC01902E1F832E8339834A835B836C83CA
:1012C0007D83BE2D2084318442845384648475845C
:1012D0008684A7859101A201B301882D9A2FA02EA3
:1012E000B12ECE80D980EA80FB800C811D810E94C6
:1012F000201D09F048F41086118612861386148684
:1013000015861686178628C09101A201B301882D83
:101310009A2FA0E080880E94291D11F0B82D1CC0D2
:10132000B815D1F0292D3F814E8159816A817B8189
:101330008C819D81A080B180C280D380E480F580C3
:10134000068117810E94021D2087318742875387BB
:101350006487758786879787B08B8B2F27960FB604
:10136000F894DEBF0FBECDBFDF91CF911F910F91DB
:10137000FF90EF90DF90CF90BF90AF909F908F90B5
:101380007F906F905F904F903F902F9008952F9295
:101390003F924F925F926F927F928F929F92AF9205
:1013A000BF92CF92DF92EF92FF920F931F93CF9352
:1013B000DF93CDB7DEB728970FB6F894DEBF0FBE28
:1013C000CDBF5C013B014A013A8329831C830B8317
:1013D0002D8C3E8C4F8C58A089A18D839AA19E8321
:1013E000EBA1EF83FCA1F88708EE13E020E030E0EA
:1013F00040E050E060E070E0C5010C960E942709D3
:1014000000E412E42FE030E040E050E060E070E003
:10141000C50180960E94320C8501045C1F4F91012A
:10142000A2016D817E818F8198850E94C11E9B01E2
:10143000AC0160E070E48CE196E40E94A71DAB0172
:10144000BC01C8010E946310F501718260821282A2
:101450001382148215821682178210861186938653
:101460008286158E178E168E89819A8195AB84ABF4
:101470008B819C8197AB86ABF1AEE0AED3AEC2AEB2
:10148000EC5AFF4F11821082329611821082C501F0
:1014900028960FB6F894DEBF0FBECDBFDF91CF9177
:1014A0001F910F91FF90EF90DF90CF90BF90AF9082
:1014B0009F908F907F906F905F904F903F902F9074
:1014C00008950F931F93CF93DF93EC0160E08A851B
:1014D0009B850E94A80B61E08A859B850E94D20BA8
:1014E00061E08CA99DA90E94A80B60E08CA99DA930
:1014F0000E94D20B8A859B850E94C00B8D8F8C8F9A
:1015000068AD79AD42E050E08EA99FA90E942D10F0
:101510004AAD5BAD68AD79AD8EA99FA90E94C70F9A
:101520008E01005B1F4F6AAD7BAD80E090E00E94B2
:10153000841EF8016083718382839383DF91CF914E
:101540001F910F910895FC01EC5AFF4F7183608346
:1015500032965183408308956F927F928F929F922B
:10156000AF92BF92CF92DF92EF92FF920F931F93B1
:10157000CF93DF93EC01380149015A016B018A8551
:101580009B850E94C00BE82E9401A501B601CE01F7
:101590000C960E943E099D8D882341F0992319F0F5
:1015A00024E030E00AC023E030E007C0992319F0BE
:1015B00022E030E002C021E030E03F8F2E8F8D8F9F
:1015C0008E8D9F8D039721F4EE24E394F12C02C0BD
:1015D000E12CF12C83019401A501B601CE01809686
:1015E0000E944C0CFE01EC5AFF4F0190F081E02D5F
:1015F000309751F0DE01AA5ABF4FED90FC90940154
:10160000A501B601CE01099583019401A501B6019A
:10161000CE01CC960E949F100E94551E4B015C018A
:101620008AAD9BAD8815990559F068AD79ADA401D7
:101630008EA99FA90E94C70F811102C09BAE8AAEDE
:10164000DF91CF911F910F91FF90EF90DF90CF909E
:10165000BF90AF909F908F907F906F900895CF93A1
:10166000DF93EC0168AD79AD40E050E08EA99FA911
:101670000E94C70F68AD79AD40E050E08EA99FA9E8
:101680000E942D1060E08CA99DA90E94A80B60E02B
:101690008CA99DA90E94D20B60E08A859B850E943F
:1016A000A80B60E08A859B85DF91CF910C94D20BCB
:1016B00088E290E008958832910554F44AE0489F0A
:1016C0009001499F300D1124C901825F9E4F0895FA
:1016D00080E090E00895EF92FF920F931F93CF93D5
:1016E000DF937C010EE011E0C0E0D0E0B701F8012B
:1016F000808191810E94DE21892B49F42AE02C9F70
:10170000C0012D9F900D1124825F9E4F08C021962D
:10171000065F1F4FC832D10549F780E090E0DF91A6
:10172000CF911F910F91FF90EF900895DC011496D7
:10173000ED91FC911597208130E0F90112960C9003
:1017400002C0F595E7950A94E2F7CF0181700895FC
:10175000DC011496ED91FC911597408121E030E079
:10176000C90112960C9002C0880F991F0A94E2F7E3
:10177000662311F0842B02C0809584238083089512
:10178000DC011696ED91FC911797208130E0F9016C
:1017900012960C9002C0F595E7950A94E2F7CF01F6
:1017A00081700895DC011896ED91FC9119974081A4
:1017B00021E030E0C90112960C9002C0880F991FF9
:1017C0000A94E2F7662311F0842B02C080958423EB
:1017D000808308958091D0069091D1060E94871150
:1017E00090E00895CF93C82F8A3039F46DE080914E
:1017F000D0069091D1060E949A116C2F8091D0064C
:101800009091D1060E949A1180E090E0CF910895C6
:10181000CF92DF92EF92FF92CF93DF936A017B0129
:101820000E943F11EC010097B1F0B701A6010E94A0
:101830004F11D093D106C093D0068EE992E09093D9
:10184000ED068093EC069093EB068093EA06909366
:10185000E9068093E806DF91CF91FF90EF90DF904B
:10186000CF9008950F931F93FC010083118322836F
:10187000338344835583668377831086118612866B
:1018800013861486158616861786118A108A138A7F
:10189000128A1F910F9108954F925F926F927F92DB
:1018A0008F929F92AF92BF92CF92DF92EF92FF9270
:1018B0000F931F93CF93DF93FC01280139014A0155
:1018C000D62FC72F80899189D701A80FB91FB18B57
:1018D000A08B2085318542855385648575858685F5
:1018E00097855801630174010D2F1C2F0E94201D44
:1018F00009F0D8F49201A301B4018D2F9C2FA08090
:10190000B180C280D380E480F580068117810E9477
:10191000021D2087318742875387648775878687B2
:101920009787B38BA28B118A108A82899389DF9162
:10193000CF911F910F91FF90EF90DF90CF90BF90CC
:10194000AF909F908F907F906F905F904F90089591
:101950001F920F920FB60F9211242F933F934F9324
:101960005F936F937F938F939F93AF932091D20652
:101970003091D3064091D4065091D5066091D60699
:101980007091D7068091D8069091D906A1E00E9467
:101990000B1D2093D2063093D3064093D406509368
:1019A000D5066093D6067093D7068093D806909399
:1019B000D906AF919F918F917F916F915F914F91D8
:1019C0003F912F910F900FBE0F901F9018959FB7CA
:1019D000F894EEE6F0E0108282E084BD24E025BDBC
:1019E00016BC2AEF27BD1092D2061092D306109291
:1019F000D4061092D5061092D6061092D7061092F1
:101A0000D8061092D90680839FBF0895AF92BF92E7
:101A1000CF92DF92EF92FF920F931F93CF938FB7E6
:101A2000F894C6B58FBFFFB7F8942091D2063091D5
:101A3000D3064091D4065091D5066091D606709198
:101A4000D7068091D8069091D906E6B5FFBFCE1390
:101A5000E6CFEAEFAE2EB12CC12CD12CE12CF12C2B
:101A600000E010E00E94DC1BAC2E0E94021D04E08E
:101A70000E94CB1CCF911F910F91FF90EF90DF90B0
:101A8000CF90BF90AF9008952F923F924F925F9268
:101A90006F927F928F929F92AF92BF92CF92DF927E
:101AA000EF92FF920F931F93CF93DF93CDB7DEB7E3
:101AB00028970FB6F894DEBF0FBECDBF29013A01BB
:101AC0004B0188879F8320EAA22E3FE0B32EC12CD2
:101AD000D12CE12CF12C00E010E092010E94371C87
:101AE000190149835A836B837C838D839E83920182
:101AF000A301B40188859F810E94351C04E00E94E7
:101B0000E61C8FB7F8942092D2063092D3069981C2
:101B10009093D4069A819093D5069B819093D60694
:101B20009C819093D7069D819093D8069E81909337
:101B3000D90626BD8FBF28960FB6F894DEBF0FBE1C
:101B4000CDBFDF91CF911F910F91FF90EF90DF906C
:101B5000CF90BF90AF909F908F907F906F905F904D
:101B60004F903F902F90089584E090E00895843046
:101B7000910554F44FE2489F9001499F300D112484
:101B8000C90184559D4F089580E090E00895EF923B
:101B9000FF920F931F93CF93DF937C010CEA12E027
:101BA000C0E0D0E0B701F801808191810E94DE2180
:101BB000892B49F42FE22C9FC0012D9F900D1124F9
:101BC00084559D4F08C02196015D1F4FC430D1053B
:101BD00049F780E090E0DF91CF911F910F91FF9046
:101BE000EF900895FC01A081B1811C92A281B38184
:101BF00086858C93A481B5811C92A681B7811196AC
:101C00001C921E92A589B68911961C921E92A18DD6
:101C1000B28D11961C921E92A58DB68D11961C92B6
:101C20001E92A085B18511961C921E92A285B38545
:101C30001C920484F585E02D8081808380E00895E6
:101C4000FC01A081B1811C92A281B38182898C9315
:101C5000A481B5811C92A681B7811C92A085B18513
:101C60001C92A285B38511961C921E92A38DB48DF1
:101C70001C92A78DB0A11C92A3A1B4A11C92A7A1F4
:101C8000B0A51C92A485B5851C92A685B7858C91BC
:101C90008C930088F189E02D108280E00895FC018A
:101CA000228133812A30310531F02031310531F480
:101CB00004960C94F20D04960C94200E81E0089585
:101CC000CF93DF93EC019A01AB0160E074E284EF03
:101CD00090E00E94AB1B2115310581E048075105BA
:101CE00030F4E885F9853183208380E001C081E00C
:101CF000DF91CF910895CF93DF93EC019A01AB016F
:101D000060E074E284EF90E00E94AB1B2F3F31054E
:101D10004105510509F028F4EBA1FCA1208380E0E6
:101D200001C081E0DF91CF910895CF93DF93EC0163
:101D30009A01AB018A819B818A30910599F0409785
:101D400011F560E074E284EF90E00E94AB1B211576
:101D5000310581E048075105B0F4EC85FD853183FC
:101D600020830FC060E074E284EF90E00E94AB1B20
:101D70002F3F31054105510509F028F4EFA1F8A5E1
:101D8000208380E001C081E0DF91CF910895CF935F
:101D9000DF93FC01A081B1812C91C281D381988114
:101DA00042898189842B8095822334892389232B3E
:101DB000522F509595236230710579F038F46115F2
:101DC000710581F06130710549F013C06330710510
:101DD00039F06430710529F00CC0842B922B02C0BD
:101DE000842B932B8C930280F381E02D908380E0F1
:101DF00001C081E0DF91CF910895CF93DF93FC0183
:101E0000A081B1812C91C481D5818881C681D7817F
:101E10009881408D318D432B342F30953223528D54
:101E2000252F20952823C68987898C2B8095892387
:101E30006230710539F06430710519F0672B71F467
:101E400003C08C2B342B252B3C93A481B5812C9380
:101E50000680F781E02D808380E001C081E0DF9182
:101E6000CF910895FC01228133812A30310531F070
:101E70002031310531F404960C94C70E04960C946D
:101E8000FD0E81E00895FC018281938108978930DD
:101E9000910528F4FC01EA54FC4F8081089580E00C
:101EA0000895EF92FF920F931F93CF93DF937C01DE
:101EB0008B016330710548F5DC011896ED91FC91BA
:101EC0001997C081D1819E01DA010E94CD1B20E1CA
:101ED00037E240E050E00E94AB1BF801EE0FFF1F1D
:101EE000EE0FFF1FEE0DFF1D0588F689E02DCE01D8
:101EF000A0E0B0E0281739074A075B0710F4DA01C1
:101F0000C9019183808380E001C081E0DF91CF919E
:101F10001F910F91FF90EF900895EF92FF920F9312
:101F20001F93CF937C018B016430710548F5DC0170
:101F30009396ED91FC919497C0812C2F30E0DA01BB
:101F40000E94CD1B20E137E240E050E00E94AB1B35
:101F5000F801EE0FFF1FEE0FFF1FEE0DFF1D038CAC
:101F6000F48DE02D8C2F90E0A0E0B0E02817390729
:101F70004A075B0710F4DA01C901808380E001C0E1
:101F800081E0CF911F910F91FF90EF900895FC0198
:101F9000228133812A30310531F02031310531F48D
:101FA00004960C94510F04960C948D0F81E00895C3
:101FB000CF93DF93FC016330710520F5C081D1819F
:101FC0002881DB01AA0FBB1FAA0FBB1FAE0FBF1FCB
:101FD00057969C9140FF02C0922B02C0909592238D
:101FE0006A5F7F4F660F771F660F771FE60FF71F39
:101FF000808141FF02C0982B02C08095982398836E
:1020000080E001C081E0DF91CF910895CF93DF930D
:10201000FC0164307105E8F4A081B1812C91660F58
:10202000771F660F771FEF01C60FD71F9D8D40FFEB
:1020300002C0922B02C090959223E60FF71F868D67
:1020400041FF02C0982B02C0809598239C9380E0AA
:1020500001C081E0DF91CF910895EF92FF920F933D
:102060001F93CF93DF93EC018B017A010E94430F02
:1020700090E008171907F8F48A819B818A3091054E
:1020800071F04097C1F4A701B801CE010496DF9129
:10209000CF911F910F91FF90EF900C94D80FA70153
:1020A000B801CE010496DF91CF911F910F91FF905F
:1020B000EF900C94061081E0DF91CF911F910F916A
:1020C000FF90EF900895FC014083518362837383F6
:1020D0001482158216821782108611861286138644
:1020E0001486158616861786108A118A128A138A14
:1020F000148A158A168A178A0895CF92DF92EF9272
:10210000FF920F931F93FC0104831583268337836B
:10211000408751876287738784899589A689B789A3
:1021200084879587A687B787C08AD18AE28AF38A8F
:102130001F910F91FF90EF90DF90CF9008954F92F5
:102140005F926F927F928F929F92AF92BF92CF9247
:10215000DF92EF92FF920F931F93CF93DF93EC01E7
:10216000522E632E742E852E962EB72FAC80BD80F6
:10217000CE80DF80E884F984FA85EB859501A6019D
:10218000B7018F2F9E2FA0E00E94291D09F45FC088
:102190009801452D562D672D782D892D9B2F0F2FBA
:1021A0001E2F0E94171D0E94C11E288139814A815D
:1021B0005B810E94891F2B013C018C849D84AE842D
:1021C000BF84C888D988EA88FB88A7019601C50121
:1021D000B4010E94841F18168CF4A3019201C5015A
:1021E000B4010E94351D4B015C019B01AC01C7018C
:1021F000B6010E94841F1816F4F018C0A7019601BA
:10220000C501B4010E94A21D87FF19C0A501940158
:10221000C301B2010E94361D4B015C019B01AC0160
:10222000C701B6010E94A21D87FD05C08C8A9D8A48
:10223000AE8ABF8A0CC0CC8ADD8AEE8AFF8A1C82F5
:102240001D821E821F82188619861A861B866C893B
:102250007D898E899F89DF91CF911F910F91FF908A
:10226000EF90DF90CF90BF90AF909F908F907F9036
:102270006F905F904F90089581E090E00895181658
:10228000190654F041E1489F9001499F300D1124F7
:10229000C90188599C4F089580E090E00895CF933C
:1022A000DF93EC019A01AB0184E0220F331F441F3E
:1022B000551F8A95D1F760E074E284EF90E00E94A8
:1022C000AB1BBA01A9014150510961097109EA85A5
:1022D000FB85BB27A72F962F852F8083E885F9855F
:1022E0004083E881F9818E858083EA81FB818F8537
:1022F0008083EC81FD8188898083DF91CF9108956F
:10230000FC01A081B1819C91848589230895FC0101
:10231000A081B18194858C918923E9F30680F781AE
:10232000E02D80810895FC01A081B1819C9185857B
:1023300089230895FC01A081B18195858C91892321
:10234000E9F30680F781E02D60830895A0E1B0E015
:10235000ECEAF1E10C94941C7C011B016A01FC0184
:1023600017821682838181FF44C39E012F5F3F4FF6
:102370003901F7019381F10193FD859193FF8191DB
:102380001F01882309F431C3853239F493FD859107
:1023900093FF81911F01853239F4B70190E00E94CB
:1023A000122256016501E5CF10E0512C912CFFE17E
:1023B000F915D8F08B3279F038F4803279F0833225
:1023C000A1F4F92DF0612EC08D3261F0803369F4F3
:1023D000292D21602DC0392D3260932E892D8460E6
:1023E000982E2AC0E92DE86015C097FC2DC020ED7D
:1023F000280F2A3088F496FE06C03AE0139F200D7D
:102400001124122F19C08AE0589E200D1124522E3B
:10241000E92DE0629E2E10C08E3231F496FCE5C2AA
:10242000F92DF0649F2E08C08C3621F4292D2068E8
:10243000922E02C0883641F4F10193FD859193FFFD
:1024400081911F018111B3CF9BEB980F933020F442
:10245000992D9061805E07C09BE9980F933008F03A
:1024600066C1992D9F7E96FF16E09F73992E853643
:1024700019F49064992E08C0863621F4392F3068FB
:10248000932E02C01111115097FE07C01C3350F457
:1024900044244394410E27E00BC0183038F027E065
:1024A00017E005C027E09CE3492E02C0212F412CF4
:1024B000560184E0A80EB11CF60160817181828111
:1024C0009381042DA3010E94EB206C01F981FC870C
:1024D000F0FF02C0F3FF06C091FC06C092FE06C0EA
:1024E00000E205C00DE203C00BE201C000E08C85F4
:1024F0008C7019F001115AC29BC297FE10C04C0C8F
:10250000FC85F4FF04C08A81813309F44A941414D1
:1025100074F528E0241578F588E0482E2CC096FC48
:102520002AC0812F90E08C159D059CF03CEFC316CE
:102530003FEFD30674F0892D8068982E0AC0E2E040
:10254000F0E0EC0FFD1FE10FF11D8081803319F4E5
:1025500011501111F4CF97FE0EC044244394410E44
:10256000812F90E0C816D9062CF41C1904C044240D
:10257000439401C010E097FE06C01C141D0434F4FF
:10258000C601019605C085E090E002C081E090E0C0
:1025900001110196112331F0212F30E02F5F3F4FC1
:1025A000820F931F252D30E08217930714F4581AD9
:1025B00001C0512C892D897049F4552039F0B7019B
:1025C00080E290E00E9412225A94F7CF002329F073
:1025D000B701802F90E00E94122293FC09C0552081
:1025E00039F0B70180E390E00E9412225A94F7CFAD
:1025F00097FE4CC04601D7FE02C0812C912CC6012B
:1026000088199909F301E80FF91FFE87ED879601F4
:1026100024193109388B2F87012F10E0119501956E
:1026200011093FEF8316930629F4B7018EE290E07B
:102630000E941222C814D9044CF08F8598898815FD
:10264000990524F4ED85FE85818101C080E3F1E0E8
:102650008F1A91082D853E852F5F3F4F3E872D872E
:10266000801691062CF0B70190E00E941222D9CF7B
:10267000C814D90441F49A81963320F4953319F49F
:102680003C8534FF81E3B70190E04EC08A818133FD
:1026900019F09C859F7E9C87B70190E00E941222D2
:1026A000111105C094FC18C085E690E017C0B70171
:1026B0008EE290E00E9412221E5F82E001E0080F8D
:1026C000F301E80FF11D8081B70190E00E94122212
:1026D000802F0113F3CFE6CF85E490E0B7010E948D
:1026E0001222D7FC06C0C114D10441F4EC85E4FFEA
:1026F00005C0D194C194D1088DE201C08BE2B7012D
:1027000090E00E94122280E32AE0C216D1042CF04D
:102710008F5FFAE0CF1AD108F7CFB70190E00E949F
:102720001222B701C601C0960E94122254C18336FC
:1027300031F0833779F0833509F056C020C0560157
:1027400032E0A30EB11CF6018081898301E010E024
:10275000630112C05601F2E0AF0EB11CF601C08059
:10276000D18096FE03C0612F70E002C06FEF7FEF53
:10277000C6010E94F5218C01F92DFF7714C0560186
:1027800022E0A20EB11CF601C080D18096FE03C0EB
:10279000612F70E002C06FEF7FEFC6010E94CC2175
:1027A0008C01F92DF0689F2EF3FD1AC0852D90E065
:1027B00008171907A8F4B70180E290E00E941222DE
:1027C0005A94F4CFF60197FC859197FE81916F01A1
:1027D000B70190E00E94122251105A940150110941
:1027E0000115110579F7F7C0843611F0893661F5C6
:1027F000560197FE09C024E0A20EB11CF6016081CB
:102800007181828193810AC0F2E0AF0EB11CF601A2
:1028100060817181072E000C880B990BF92DFF76D2
:102820009F2E97FF09C090958095709561957F4F79
:102830008F4F9F4FF0689F2E2AE030E0A3010E9447
:10284000BE22C82EC6183FC0092D853721F40F7E41
:102850002AE030E01DC0097F8F3691F018F48835EA
:1028600059F0C3C0803719F0883711F0BEC000613D
:1028700004FF09C0046007C094FE08C0066006C0DB
:1028800028E030E005C020E130E002C020E132E085
:10289000560107FF09C084E0A80EB11CF601608153
:1028A00071818281938108C0F2E0AF0EB11CF60104
:1028B0006081718180E090E0A3010E94BE22C82E59
:1028C000C6180F77902E96FE0BC0092D0E7FC116ED
:1028D00050F494FE0AC092FC08C0092D0E7E05C07B
:1028E000DC2C092D03C0DC2C01C0D12E04FF0DC04F
:1028F000FE01EC0DF11D8081803311F4097E09C0C9
:1029000002FF06C0D394D39404C0802F867809F0C8
:10291000D39403FD11C000FF06C01C2DD51480F414
:10292000150D1D190DC0D51458F4B70180E290E0C3
:102930000E941222D394F7CFD51410F45D1801C071
:10294000512C04FF10C0B70180E390E00E941222D6
:1029500002FF17C001FD03C088E790E002C088E5D0
:1029600090E0B7010CC0802F867859F001FF02C0BB
:102970008BE201C080E207FD8DE2B70190E00E948A
:102980001222C11638F4B70180E390E00E941222AF
:102990001150F7CFCA94F301EC0DF11D8081B701FE
:1029A00090E00E941222C110F5CF15C0F4E0F51599
:1029B00060F584E0581A93FE1FC0011127C02C85D2
:1029C00023FF2AC00CEA10E0392D3071932EF80154
:1029D0008491811124C0552009F4E4CCB70180E230
:1029E00090E00E9412225A94F6CFF70186819781D7
:1029F00026C08FEF9FEF23C0B70180E290E00E94D6
:102A000012225A945110F8CFD8CF512CB701802FF1
:102A100090E00E941222D3CF00EB10E0D5CF9110AE
:102A20008052B70190E00E9412220F5F1F4FCFCF5C
:102A300023E0251510F483E0BDCF512CC0CF609664
:102A4000E2E10C94B01C40E452E46FE070E080E0FE
:102A500090E00E94080C0E94E70C789460E070E01F
:102A600080E090E00E94EA0680E090E008950E94F5
:102A70009015F8942FEF87EA91E62150804090401E
:102A8000E1F700C0000085EE9FEAACEDBAEB809361
:102A9000EE069093EF06A093F006B093F1069CE04B
:102AA00088E10FB6F894A895809360000FBE9093CC
:102AB0006000FFCF0E94371584B7877F84BF0FB6B1
:102AC000F894A895809160008861809360001092CE
:102AD00060000FBE90E080E80FB6F894809361002C
:102AE000909361000FBE78940C94EC1589E793E005
:102AF0000C941A19682F89E793E00C94C51889E79C
:102B000093E00E940A190C9483180C94901589E79D
:102B100093E00C949D1889E793E00C94481908956C
:102B20000E94FD150E940516E0EEF0E080818160B4
:102B30008083E8EDF0E080818F77808319BCA7ED7A
:102B4000B0E08C918E7F8C9380818F7E80831092F9
:102B5000DD0608950F931F93CF93DF930E94FD1519
:102B60000E940516C8EDD0E088818F778883888120
:102B70008068888388818F7D888319BC1EBA1092F3
:102B8000DA061092DC061092DB0600EE10E0F80187
:102B900080818B7F808388818160888342E060E0D0
:102BA00080E00E94E91AE1EEF0E080818E7F808370
:102BB000E2EEF0E0808181608083808188608083A4
:102BC000F80180818E7F8083888180618883DF9196
:102BD000CF911F910F910895E8EDF0E080818F7EF5
:102BE0008083E7EDF0E080818160808384E082BFB4
:102BF00081E08093DD060C94AA15E8EDF0E0808179
:102C00008E7F80831092E20008951092DA00109275
:102C1000E10008951F920F920FB60F9211242F9387
:102C20003F934F935F936F937F938F939F93AF9354
:102C3000BF93EF93FF938091E10082FF0BC08091DF
:102C4000E20082FF07C08091E1008B7F8093E1006A
:102C50000E9482188091DA0080FF1DC08091D80008
:102C600080FF19C08091DA008E7F8093DA00809116
:102C7000D90080FF0CC080E189BD82E189BD09B423
:102C800000FEFDCF81E08EBB0E94821804C019BCFB
:102C90001EBA0E9482188091E10080FF18C08091C6
:102CA000E20080FF14C08091E2008E7F8093E200FA
:102CB0008091E20080618093E2008091D800806280
:102CC0008093D80019BC85E08EBB0E948218809149
:102CD000E10084FF2FC08091E20084FF2BC080E1DF
:102CE00089BD82E189BD09B400FEFDCF8091D80085
:102CF0008F7D8093D8008091E1008F7E8093E100EA
:102D00008091E2008F7E8093E2008091E2008160FA
:102D10008093E2008091DA06882311F084E007C0F6
:102D20008091E30087FD02C081E001C083E08EBB9B
:102D30000E9482188091E10083FF28C08091E20008
:102D400083FF24C08091E100877F8093E10082E0CF
:102D50008EBB1092DA068091E1008E7F8093E100B5
:102D60008091E2008E7F8093E2008091E20080619A
:102D70008093E20042E060E080E00E94E91A8091E6
:102D8000F00088608093F0000E948218FF91EF911C
:102D9000BF91AF919F918F917F916F915F914F9173
:102DA0003F912F910F900FBE0F901F9018951F927B
:102DB0000F920FB60F9211242F933F934F935F936F
:102DC0006F937F938F939F93AF93BF93CF93DF9333
:102DD000EF93FF93C091E900CF708091EC00D82F62
:102DE000D17080FDD0E81092E9008091F000877FDB
:102DF0008093F00078940E941B171092E900809154
:102E0000F00088608093F000CD2BCF70C093E90074
:102E1000FF91EF91DF91CF91BF91AF919F918F91F2
:102E20007F916F915F914F913F912F910F900FBEC6
:102E30000F901F9018951F93CF93DF93CDB7DEB7F8
:102E4000AA970FB6F894DEBF0FBECDBFEEEDF6E049
:102E50008091F100819326E0E63EF207C9F70E94D7
:102E60008B158091E80083FF35C18091DE0690913B
:102E7000DF06953009F484C030F49130A9F168F090
:102E8000933091F127C1983009F4F3C0993009F4D7
:102E9000FFC0963009F01EC195C0803821F08238FD
:102EA00009F018C108C08091DB069091DC069923D7
:102EB00089F082600FC08091E2068F70873008F041
:102EC00009C18093E9008091EB0085FB882780F998
:102ED0001092E9009091E800977F9093E80080932A
:102EE000F1001092F100D0C0282F2D7F09F0F2C020
:102EF000882319F0823061F0EDC08091E0068130C6
:102F000009F0E8C0933009F080E08093DC062EC021
:102F10008091E00681112AC08091E2068F702FEF28
:102F2000280F263008F0D6C08093E9002091EB00EE
:102F300020FF1CC0933021F48091EB00806214C00C
:102F40009091EB0090619093EB0021E030E0A901BB
:102F500002C0440F551F8A95E2F74093EA00109291
:102F6000EA008091EB0088608093EB001092E9000A
:102F70008091E800877F8093E8000E945C1BAAC0D4
:102F80008111A8C01091E0061F778091E30080783E
:102F9000812B8093E3008091E800877F8093E80095
:102FA0000E945C1B8091E80080FFFCCF8091E300D1
:102FB00080688093E300111102C082E001C083E0C9
:102FC0008EBB88C08058823008F084C08091E006B3
:102FD0009091E1068C3D53E0950779F583E08A8373
:102FE0008AE289834FB7F894DE01139620E03EE031
:102FF00051E2E32FF0E050935700E49120FF03C02B
:10300000E295EF703F5FEF708E2F90E0EA3010F0A6
:10301000C79601C0C0968D939D932F5F243149F7C9
:103020004FBF8091E800877F8093E8006AE270E0FC
:10303000CE0101960E942E1A16C06091E206709190
:10304000E306AE014F5F5F4F0E94FE19BC01892B62
:1030500009F440C09091E800977F9093E80089813F
:103060009A810E948A1A8091E8008B778093E80009
:1030700031C0803879F58091E800877F8093E8003F
:103080008091DA068093F1008091E8008E7773CF0B
:10309000811120C08091E0069091E1069927029766
:1030A000CCF48091E800877F8093E8008091E0066F
:1030B0008093DA060E945C1B8091DA06811106C0BB
:1030C0008091E30087FD02C081E001C084E08EBBF7
:1030D0000E9487158091E80083FF0AC08091E80074
:1030E000877F8093E8008091EB0080628093EB0003
:1030F000AA960FB6F894DEBF0FBECDBFDF91CF9179
:103100001F9108950895CF938EB38823A1F0C091A5
:10311000E900CF709091EC00892F817090FD80E8DC
:10312000C82B1092E9008091E80083FD0E941B17D4
:10313000CF70C093E900CF910895CF93DF93EC0156
:10314000FC0170968BE0DF011D928A95E9F782E021
:103150008C83898783E08E8761E0CE0101960E948F
:103160001E1B882371F061E0CE0106960E941E1B93
:10317000882339F061E0CE010B96DF91CF910C945A
:103180001E1B80E0DF91CF910895CF932EB32430A2
:10319000C1F4C62FFC0181818F708093E90080917A
:1031A000E80085FF04C0C093F10080E00BC080916F
:1031B000E8008E778093E8000E94791B882399F3BA
:1031C00001C082E0CF9108952EB3243009F5FC01AF
:1031D00081818F708093E9002091F3008091F2004B
:1031E00090E0922B892B91F09091E8008091E8007B
:1031F0008E778093E80095FD09C00E94791B8111AC
:1032000008C08091E8008E778093E80080E0089500
:1032100082E00895FC018EB3843059F491819F704F
:103220009093E9008091E80080FF03C0CF010C94E7
:10323000E41808952EB3243019F08FEF9FEF08950E
:10324000FC0186818F708093E9008091E80082FF05
:10325000F4CF2091F3008091F20090E0922B892B23
:1032600021F02091F10030E002C02FEF3FEF4091BC
:10327000F3008091F20090E0942B892B29F4809147
:10328000E8008B778093E800C901089508950895B8
:10329000CF93DF93EC018091E80083FFACC088817D
:1032A00090E02091E2063091E3062817390709F0F3
:1032B000A2C08091DF06813261F020F4803209F4EF
:1032C0003FC099C0823209F46EC0833209F481C0D4
:1032D00092C08091DE06813A09F08DC08091E800AD
:1032E000877F8093E8008091E80080FFFCCF8C8985
:1032F0009D89AE89BF898093F100492F5A2F6B2F8A
:1033000077274093F100AD01662777274093F100BE
:103310008B2F9927AA27BB278093F100888D809354
:10332000F100898D8093F1008A8D8093F100809166
:10333000E8008E778093E800DF91CF910C945C1BBE
:103340008091DE06813209F056C08091E800877FC7
:103350008093E8008091E80082FD04C08EB3811163
:10336000F9CF49C03091F1002091F1009091F10026
:103370008091F1003C8B2D8B9E8B8F8B8091F10087
:10338000888F8091F100898F8091F1008A8F8091E0
:10339000E8008B778093E8000E945C1BCE01DF91F0
:1033A000CF910C948F158091DE06813221F58091AA
:1033B000E800877F8093E8000E945C1B8091E00614
:1033C0009091E106998B888BCE01DF91CF910C947F
:1033D00046198091DE06813271F48091E800877F82
:1033E0008093E8000E945C1B6091E006CE01DF91B3
:1033F000CF910C944719DF91CF910895292F33274E
:103400002230310559F02330310569F02130310582
:10341000E9F482E190E02CE032E01CC08EE390E021
:103420002EEC31E017C099278130910549F028F042
:10343000029761F4EEEAF1E005C0EAECF1E002C0C7
:10344000E6EBF1E0849190E09F0104C080E090E021
:1034500020E030E0FA013183208308952091E406D2
:103460003091E5062617370748F06115710539F4E4
:103470002091E8002E772093E80001C0B901FC01FB
:1034800020E06115710571F18EB38823E9F1853073
:10349000E9F18091E80083FD3BC08091E80082FD66
:1034A0002DC08091E80080FFECCF2091F300809147
:1034B000F20090E0922B6115710551F08830910572
:1034C00038F421912093F100615071090196F3CFF6
:1034D00021E0089709F020E08091E8008E77809342
:1034E000E800CFCF2111D0CF09C08EB3882361F07F
:1034F000853061F08091E80083FD0AC08091E8008A
:1035000082FFF3CF80E0089582E0089583E008957C
:1035100081E008952091E4063091E50626173707EB
:1035200048F06115710539F42091E8002E77209359
:10353000E80001C0B901FC0120E06115710589F1C5
:103540008EB3882309F43FC0853009F43EC08091D2
:10355000E80083FD3CC08091E80082FD2EC0809190
:10356000E80080FFEACF2091F3008091F20090E024
:10357000922B6115710559F08830910540F4249122
:103580002093F1003196615071090196F2CF21E04C
:10359000089709F020E08091E8008E778093E8009A
:1035A000CCCF2111CDCF09C08EB3882361F08530F7
:1035B00061F08091E80083FD0AC08091E80082FFFD
:1035C000F3CF80E0089582E0089583E0089581E0DC
:1035D0000895982F973068F59093E900981739F07F
:1035E0007091EC002091ED005091F00003C0242F69
:1035F000762F50E021FD02C09F5FECCF3091EB00B1
:103600003E7F3093EB003091ED003D7F3093ED0035
:103610003091EB0031603093EB007093EC0020931D
:10362000ED005093F0002091EE0027FDE5CF80E003
:1036300008958F708093E90081E008950F931F93A0
:10364000CF93DF93062FEC0110E0101779F168811A
:10365000611103C01F5F2596F8CF2C81A981BA8123
:103660009B81862F8F70873010F080E020C0223041
:1036700010F442E001C046E0E8E0F0E020E0EA17A4
:10368000FB0720F42F5FEE0FFF1FF9CF2295207F5D
:10369000422B50E4959F90011124661F6627661FF8
:1036A000622B0E94E91A8111D5CFDFCF81E0DF9133
:1036B000CF911F910F9108958091DE0687FF0FC073
:1036C0008091E80082FD04C08EB38111F9CF10C053
:1036D0008091E8008B770AC08EB3882349F08091EF
:1036E000E80080FFF9CF8091E8008E778093E800B2
:1036F00008952091E4003091E50095E64091EC00BA
:10370000842F817040FF22C08091E80080FD1CC0A2
:103710008EB3882399F0853099F08091EB0085FD78
:1037200011C04091E4005091E5002417350731F3B2
:10373000915011F09A01E2CF84E0089582E008955B
:1037400083E0089581E0089580E008954091E800C5
:1037500042FFDECF0895A1E21A2EAA1BBB1BFD017A
:103760000DC0AA1FBB1FEE1FFF1FA217B307E40760
:10377000F50720F0A21BB30BE40BF50B661F771FB8
:10378000881F991F1A9469F7609570958095909598
:103790009B01AC01BD01CF010895A29FB001B39F71
:1037A000C001A39F700D811D1124911DB29F700D4A
:1037B000811D1124911D0895DF93CF931F930F93C3
:1037C0009A9DF02D219FF00D8B9DF00D8A9DE02D8F
:1037D000F10D039FF00D029FE00DF11D4E9DE00DD8
:1037E000F11D5E9DF00D4F9DF00D7F936F93BF9285
:1037F000AF925F934F93D5010E94CD1B8B01AC011B
:10380000D7010E94CD1BEB01E80FF91FD6010E94E2
:103810002C1C2F913F91D6010E94CD1BC60FD71FA4
:10382000E81FF91FAF91BF910E942C1C2F913F916F
:103830000E94CD1BC60FD71FE81FF91FD6010E949B
:10384000CD1BE60FF71F9801BE01CF0111240F9188
:103850001F91CF91DF9108950E94CD1B460F571FF6
:10386000C81FD91F08F431960895689401C0E894E0
:103870008F929F92CF93DF930E94431CDF91CF9151
:103880009F908F90089588249924F401E401B0E476
:103890009F93AA279A158B049C04ED05FE05CF057E
:1038A000D007A10798F4AD2FDC2FCF2FFE2FE92DE5
:1038B000982C892E982F872F762F652F542F432FE2
:1038C000322F2227B85031F7BF9127C01B2EBF914E
:1038D000BB27220F331F441F551F661F771F881FEA
:1038E000991F881C991CEE1FFF1FCC1FDD1FAA1FEC
:1038F000BB1F8A149B04EC05FD05CE05DF05A00760
:10390000B10748F08A189B08EC09FD09CE09DF09C8
:10391000A00BB10B21601A94E1F62EF49401AF01D3
:10392000BE01CD01000C08952F923F924F925F92FD
:103930006F927F928F929F92AF92BF92CF92DF92BF
:10394000EF92FF920F931F93CF93DF93CDB7DEB724
:10395000CA1BDB0B0FB6F894DEBF0FBECDBF0994B8
:103960002A88398848885F846E847D848C849B840F
:10397000AA84B984C884DF80EE80FD800C811B811D
:10398000AA81B981CE0FD11D0FB6F894DEBF0FBE4C
:10399000CDBFED0108950F93083090F0982F872F39
:1039A000762F652F542F432F322F22270850F4CF24
:1039B000220F331F441F551F661F771F881F991F33
:1039C0000A95B2F70F91089597FB10F81694000826
:1039D0000F93083098F00850232F342F452F562F7F
:1039E000672F782F892F902DF4CF05949795879581
:1039F0007795679557954795379527950A95AAF72F
:103A00000F9108952A0D3B1D4C1D5D1D6E1D7F1DE0
:103A1000801F911F08950024A7FD00942A0F301DD8
:103A2000401D501D601D701D801D901D08952A1998
:103A30003B094C095D096E097F09800B910B0895C4
:103A40002A153B054C055D056E057F05800791072E
:103A500008950024A7FD00942A173005400550055D
:103A6000600570058005900508955058BB27AA276A
:103A70000E944D1D0C944A1F0E943C1F38F00E946A
:103A8000431F20F039F49F3F19F426F40C94291FAA
:103A90000EF4E095E7FB0C94231FE92F0E945B1FB7
:103AA00058F3BA17620773078407950720F079F473
:103AB000A6F50C947D1F0EF4E0950B2EBA2FA02DC9
:103AC0000B01B90190010C01CA01A0011124FF27CB
:103AD000591B99F0593F50F4503E68F11A16F040C6
:103AE000A22F232F342F4427585FF3CF46953795C5
:103AF0002795A795F0405395C9F77EF41F16BA0B8A
:103B0000620B730B840BBAF09150A1F0FF0FBB1F37
:103B1000661F771F881FC2F70EC0BA0F621F731F80
:103B2000841F48F4879577956795B795F7959E3FDD
:103B300008F0B0CF9395880F08F09927EE0F97956E
:103B4000879508950E94FF1E08F481E008950E9461
:103B5000BB1D0C944A1F0E94431F58F00E943C1F3B
:103B600040F029F45F3F29F00C94231F51110C946D
:103B70007E1F0C94291F0E945B1F68F39923B1F3E9
:103B8000552391F3951B550BBB27AA276217730783
:103B9000840738F09F5F5F4F220F331F441FAA1F17
:103BA000A9F335D00E2E3AF0E0E832D091505040D3
:103BB000E695001CCAF72BD0FE2F29D0660F771F81
:103BC000881FBB1F261737074807AB07B0E809F067
:103BD000BB0B802DBF01FF2793585F4F3AF09E3FEC
:103BE000510578F00C94231F0C947E1F5F3FE4F383
:103BF000983ED4F3869577956795B795F7959F5F2F
:103C0000C9F7880F911D9695879597F90895E1E07A
:103C1000660F771F881FBB1F621773078407BA07D9
:103C200020F0621B730B840BBA0BEE1F88F7E09534
:103C30000895BEE304D008F490E80895BFE3222776
:103C40003327A9010E94631F60F19F5748F1B917FC
:103C500040F1BFE3B91B9927B8503AF4660F771FBC
:103C6000881F991FB395D2F316C0B8504AF0232F7E
:103C7000342F452F562F672F782F8827B850BAF743
:103C8000B85F49F08695779567955795479537952D
:103C90002795BA95B9F716F40E942C1F88940895B9
:103CA000889460E070E0CB0108950E94631F88F063
:103CB0009F5798F0B92F9927B751B0F0E1F0660FF0
:103CC000771F881F991F1AF0BA95C9F714C0B13031
:103CD00091F00E947D1FB1E008950C947D1F672F25
:103CE000782F8827B85F39F0B93FCCF38695779560
:103CF0006795B395D9F73EF4909580957095619549
:103D00007F4F8F4F9F4F0895E89409C097FB3EF473
:103D100090958095709561957F4F8F4F9F4F992318
:103D2000A9F0F92F96E9BB279395F6958795779596
:103D30006795B795F111F8CFFAF4BB0F11F460FF56
:103D40001BC06F5F7F4F8F4F9F4F16C0882311F0AE
:103D500096E911C0772321F09EE8872F762F05C0C2
:103D6000662371F096E8862F70E060E02AF09A955D
:103D7000660F771F881FDAF7880F9695879597F952
:103D80000895E894F92F96EBFF2381F0121613069D
:103D90001406440B9395F6958795779567955795F7
:103DA0004040FF23B9F71BC099270895882351F499
:103DB0009850D2F7872B762F652F542F432F322F11
:103DC00020E0B1F3121613061406440B88233AF0D0
:103DD0009A95440F551F661F771F881FCAF75523F2
:103DE0004AF4440F551F11F460FF04C06F5F7F4F0A
:103DF0008F4F9F4F880F9695879597F90895990F44
:103E00000008550FAA0BE0E8FEEF16161706E807A4
:103E1000F907C0F012161306E407F50798F0621BC5
:103E2000730B840B950B39F40A2661F0232B242B9A
:103E3000252B21F408950A2609F4A140A6958FEFB9
:103E4000811D811D089597F99F6780E870E060E00B
:103E500008959FEF80EC08959095809570956095FA
:103E600050954095309521953F4F4F4F5F4F6F4F85
:103E70007F4F8F4F9F4F089500240A941616170600
:103E800018060906089500240A941216130614064B
:103E900005060895092E0394000C11F4882352F0AE
:103EA000BB0F40F4BF2B11F460FF04C06F5F7F4F66
:103EB0008F4F9F4F089557FD9058440F551F59F04D
:103EC0005F3F71F04795880F97FB991F61F09F3F07
:103ED00079F087950895121613061406551FF2CF30
:103EE0004695F1DF08C0161617061806991FF1CF80
:103EF00086957105610508940895E894BB276627A7
:103F00007727CB0197F908950E94FF1E08F48FEFE1
:103F100008950E949C1F0C944A1F0E943C1F38F079
:103F20000E94431F20F0952311F00C94231F0C9442
:103F3000291F11240C947E1F0E945B1F70F3959F14
:103F4000C1F3950F50E0551F629FF001729FBB2790
:103F5000F00DB11D639FAA27F00DB11DAA1F649F2C
:103F60006627B00DA11D661F829F2227B00DA11DDF
:103F7000621F739FB00DA11D621F839FA00D611D65
:103F8000221F749F3327A00D611D231F849F600D86
:103F9000211D822F762F6A2F11249F5750409AF0AF
:103FA000F1F088234AF0EE0FFF1FBB1F661F771F3B
:103FB000881F91505040A9F79E3F510580F00C9406
:103FC000231F0C947E1F5F3FE4F3983ED4F3869545
:103FD00077956795B795F795E7959F5FC1F7FE2BA6
:103FE000880F911D9695879597F90895A0E0B0E008
:103FF000ECEFFFE10C94951C5C016B017A016115FB
:10400000710519F0FB0191838083E114F10429F01B
:10401000C7010297839708F0C9C0E5012196F50111
:104020001081812F90E00E94C321892B11F05E0145
:10403000F4CF1D3229F42196F501118101E007C06A
:104040001B3221F4E5012296F501118100E0E11413
:10405000F104B1F0F0E1EF16F10429F4B0C010E37F
:10406000E114F10401F12AE0E216F104B1F180E17A
:10407000E816F10471F0E8E0EE16F104F1F413C073
:10408000103341F588818F7D883549F71981229653
:104090000260F0E1EF2EF12C88248A94982CA82C51
:1040A000AFE0BA2E20C078E0E72EF12C88248A9465
:1040B000982CA82CEFE1BE2E16C06FEF7FEFCB013E
:1040C00097010F2C000C440B550B0E94AB1B4901B0
:1040D0005A0109C08AE0E82EF12C69E9862E982C55
:1040E000A82C69E1B62E40E060E070E0CB0127012A
:1040F0000F2C000C66087708FE0150ED352E310EAE
:1041000029E0231570F42FEB210F2A3118F439EC34
:10411000332E06C02FE9210F2A3130F529EA322E3D
:10412000310E232D30E02E153F05F4F44F3FC9F03A
:1041300086169706A806B90688F0A30192010E9488
:104140006723232D30E040E050E0620F731F841F8F
:10415000951F621773078407950710F44FEF01C08E
:1041600041E021961081C8CFC114D10451F04423FD
:1041700011F0219703C001FF04C02297F601D183FB
:10418000C08300FF07C090958095709561957F4F23
:104190008F4F9F4F4F3F79F482E290E09093E70674
:1041A0008093E6063FEF2FEF9FEF0DC040E030E039
:1041B00020E090E008C0462F372F282F04C010338E
:1041C00009F067CF5FCF642F732F822FCDB7DEB793
:1041D000E1E10C94B11C283008F027E03327DA0124
:1041E000990F311D87FD916000966105710539F4C5
:1041F00032602E5F3D9330E32A95E1F708959F3FAB
:1042000030F080387105610509F03C5F3C5F3D93FB
:10421000913008F08068911DDF93CF931F930F9327
:10422000FF92EF92192F987F9695E92F9695969584
:10423000E90FFF27E25FFE4F99273327EE24FF2483
:10424000A701E70105900894079428F4360FE71EAC
:10425000F81E491F511D660F771F881F991F06946E
:10426000A1F70590079428F4E70EF81E491F561F82
:10427000C11D770F881F991F661F0694A1F705902F
:10428000079428F4F80E491F561FC71FD11D880F29
:10429000991F661F771F0694A1F70590079420F4D5
:1042A000490F561FC71FD81F990F661F771F881FFA
:1042B0000694A9F784911095177041F0D695C7958B
:1042C00057954795F794E7941A95C1F7E4EBF0E01A
:1042D00068941590159135916591959105907FE2BF
:1042E0007395E118F10A430B560BC90BD009C0F7BF
:1042F000E10CF11E431F561FC91FD01D7EF4703301
:1043000011F48A95E6CFE894015030F0080F0AF4D2
:104310000027021708F4202F2395022F7A3328F064
:1043200079E37D932A95E9F710C07D932A9589F664
:10433000069497956795379517951794E118F10AA4
:10434000430B560BC90BD00998F023957E917395BA
:104350007A3308F070E37C932013B8F77E91706194
:104360007D9330F0839571E37D9370E32A95E1F7B7
:104370001124EF90FF900F911F91CF91DF9199271A
:1043800087FD9095089591110C941C23803219F0AB
:1043900089508550C8F70895FC0105906150704020
:1043A0000110D8F7809590958E0F9F1F0895DC011E
:1043B00001C06D9341505040E0F70895FB01DC01CE
:1043C0008D91019080190110D9F3990B0895FB018B
:1043D000DC014150504030F08D910190801919F46A
:1043E0000020B9F7881B990B0895FC0161507040BB
:1043F00001900110D8F7809590958E0F9F1F08951A
:10440000A0E0B0E0E6E0F2E20C94A41CAE01475F4D
:104410005F4F6F8178858D819E810E94A611E2E0B9
:104420000C94C01C0F931F93CF93DF93FB01238148
:1044300021FD03C08FEF9FEF2CC022FF16C04681E5
:104440005781248135814217530744F4A081B181FB
:104450009D012F5F3F4F318320838C9326813781CD
:104460002F5F3F4F3783268314C08B01EC01FB0184
:104470000084F185E02D0995892BE1F6D801169687
:104480008D919C911797019617969C938E931697F2
:10449000CE01DF91CF911F910F910895EF92FF927E
:1044A0000F931F93CF93DF93DB0113962C9121FF82
:1044B00018C08B017C01D0E0C0E0F70181917F0141
:1044C000882361F0D8011896ED91FC911997B801F5
:1044D0000995892B91F3DFEFCFEFEFCF8D2F9C2F35
:1044E00002C08FEF9FEFCDB7DEB7E6E00C94BC1CA7
:1044F000A0E0B0E0EEE7F2E20C94A41CAE014B5F4A
:104500005F4FFA0161917191AF018091EA0690913C
:10451000EB060E94A611E2E00C94C01C0F931F93BF
:10452000CF93DF93E091EA06F091EB06238121FF20
:104530001BC08C01D0E0C0E0F80181918F01609137
:10454000EA067091EB06DB011896ED91FC91199744
:10455000882331F00995892B79F3DFEFCFEFECCF8A
:104560008AE00995892B19F08FEF9FEF02C08D2FFC
:104570009C2FDF91CF911F910F910895FA01AA27E7
:10458000283051F1203181F1E8946F936E7F6E5F96
:104590007F4F8F4F9F4FAF4FB1E03ED0B4E03CD044
:1045A000670F781F891F9A1FA11D680F791F8A1F27
:1045B000911DA11D6A0F711D811D911DA11D20D08E
:1045C00009F468943F912AE0269F11243019305D48
:1045D0003193DEF6CF010895462F4770405D419339
:1045E000B3E00FD0C9F7F6CF462F4F70405D4A3386
:1045F00018F0495D31FD4052419302D0A9F7EACF4E
:10460000B4E0A6959795879577956795BA95C9F77C
:1046100000976105710508959B01AC010A2E06946F
:104620005795479537952795BA95C9F7620F731F28
:10463000841F951FA01D0895992788270895F9992B
:10464000FECF92BD81BDF89A992780B50895A6E165
:10465000B0E044E050E00C945923A8E1B0E042E01F
:1046600050E00C945923262FF999FECF92BD81BDBD
:10467000F89A019700B4021639F01FBA20BD0FB6A0
:10468000F894FA9AF99A0FBE08950396272F0E947C
:1046900034230E943323252F0E943423242F0C948B
:1046A00034230196272F0E9434230C943323DC01FA
:1046B000CB01FC01F999FECF06C0F2BDE1BDF89A2D
:1046C000319600B40D9241505040B8F70895DB0187
:1046D0008F939F930E947723BF91AF91A29F800DEC
:1046E000911DA39F900DB29F900D112408950E94DB
:1046F000CD1BA59F900DB49F900DA49F800D911D83
:0847000011240895F894FFCF85
:1047080000000002000000004C0200000000A504A8
:104718000000240023002500A90401002400230030
:104728002500AD040200240023002500B104030085
:10473800240023002500F30304002400230025009F
:104748000C04050024002300250019040600240099
:1047580023002500B5040700240023002500B90420
:104768000000270026002800BD04010027002600BD
:104778002800C1040200270026002800C504030001
:10478800270026002800C904040027002600280066
:10479800CD0405002700260028002604060027006F
:1047A80026002800FF030700270026002800D10460
:1047B80000002A0029002B00D50401002A00290046
:1047C8002B00D90402002A0029002B00DD04030075
:1047D8002A0029002B00E10404002A0029002B00EC
:1047E800E50405002A0029002B00E90406002A0038
:1047F80029002B00ED0407002A0029002B00F104F2
:1048080000002D002C002E00F50401002D002C00C6
:104818002E00F90402002D002C002E00FD040300D8
:104828002D002C002E00010504002D002C002E0068
:10483800050505002D002C002E00F70306002D00AD
:104848002C002E00090507002D002C002E00D8038F
:10485800000030002F003100FB03010030002F0062
:1048680031000D05020030002F0031001105030052
:1048780030002F0031000804040030002F00310000
:104888001504050030002F00310022040600300016
:104898002F0031001505070030002F0031000000FF
:1048A800000300000000F20BEA0B0000A704080058
:1048B8004400450046006E0035004700408048002F
:1048C80010200000000000000000000000000000B0
:1048D8000000000000000000000000AB0410008091
:1048E8000081008200840086006F00360001020407
:1048F80001020810880040808A0010208C000408FB
:1049080000000000000000000000B3041000900048
:104918009100920094009600710038000102040191
:10492800020810980040809A0010209C000408009B
:1049380000000000000000000057040A00C000C189
:1049480000C200C300C400BE0072003900D40001D8
:104958000204080102020101CF004080D0001020AB
:10496800D1000000D2000408C800C900CA00CE0067
:10497800CC00CD0080200018060083100000010440
:104988001000000182080000010000000000000083
:1049980000000000A8610000E8030000881348E850
:1049A8000100400D0300808D5B00EB00C409AC0DD5
:1049B80010278096980002000400000000000346BB
:1049C80061696C656420746F2066696E642074691F
:1049D8006D65722025730A00504630004661696C87
:1049E800656420746F2066696E642070696E202586
:1049F800730A00504234005045360050463100508A
:104A0800433700504F57420050463400504235005B
:104A180043505546005046350050423600494E54E2
:104A2800460050463600504336004558484600492F
:104A38006F0054414348000D0A253034580D0A00D0
:104A480044555459005355535000524556495349FB
:104A58004F4E00312E302E34000D0A25730D0A00FA
:104A68005253455400424F4F54000D0A4552524F7D
:104A7800520D0A000D0A4F4B0D0A0072756E6E69D1
:104A88006E67207468656C696F00256C64203E2031
:104A9800313030300A0065786974696E672074684F
:104AA800656C696F0050423000504231005042320C
:104AB80000504233005042370050433000504331D9
:104AC80000504332005043330050433400504335C4
:104AD80000504430005044310050443200504433B8
:104AE8000050443400504435005044360050443798
:104AF8000050453000504531005045320050453394
:104B08000050453400504535005045370050463276
:0A4B180000504633005046370000FD
:00000001FF
