:100000000C940F010C942C010C942C010C942C01D9
:100010000C942C010C942C010C942C010C942C01AC
:100020000C942C010C942C010C9493140C946015DA
:100030000C942C010C942C010C942C010C942C018C
:100040000C942C010C942C010C942C010C942C017C
:100050000C942C010C94500B0C942C010C942C013E
:100060000C942C010C942C010C942C010C942C015C
:100070000C942C010C942C010C942C010C942C014C
:100080000C942C010C942C010C942C010C942C013C
:100090000C942C010C942C010C942C010C942C012C
:1000A0000C942C010C942C010C942C016E616E00AC
:1000B000696E660000407A10F35A00A0724E18096B
:1000C0000010A5D4E80000E87648170000E40B54BF
:1000D000020000CA9A3B000000E1F505000080968E
:1000E0009800000040420F000000A08601000000C0
:1000F000102700000000E80300000000640000007A
:1001000000000A00000000000100000000002C7642
:10011000D888DC674F0823DFC1DFAE59E1B1B7965D
:10012000E5E3E453C63AE651997696E8E6C28426BA
:10013000EB898C9B62ED407C6FFCEFBC9C9F40F296
:10014000BAA56FA5F490055A2AF75C936B6CF96712
:100150006DC11BFCE0E40D47FEF520E6B500D0EDD7
:10016000902E0300943577050080841E080000203F
:100170004E0A000000C80C333333330F986E1283DD
:100180001141EF8D2114893BE65516CFFEE6DB18B1
:10019000D1844B381BF77C1D901DA4BBE424203276
:1001A00084725E228100C9F124ECA1E53D2706039B
:1001B00049006F00000012035300790073007400BF
:1001C00065006D00370036000000040309040902D1
:1001D0003E00020100C03209040000010202FF00DB
:1001E0000524001001042402060524060001070569
:1001F00082030800FF09040100020A00000007054D
:100200000402100005070583021000051201100109
:10021000020000080912761701000102DC01112416
:100220001FBECFEFDAE0DEBFCDBF15E0A0E0B1E04A
:10023000EEE5F4E402C005900D92A431B107D9F7C0
:1002400026E0A4E1B5E001C01D92AE3BB207E1F7A4
:100250000E94CB130C942D220C9400002F923F92FD
:100260004F925F926F927F928F929F92AF92BF92C6
:10027000CF92DF92EF92FF920F931F93CF93DF9372
:1002800000D000D0CDB7DEB79C838B832801390125
:10029000342E252E69837A835701FC01868997893C
:1002A0000197029770F0F70186A197A10E94680A52
:1002B000882361F00E94021481110CC0812C912CC2
:1002C0000CC023E0822E912C60E008C08824839427
:1002D000912C03C082E0882E912C61E0F50180A56D
:1002E00091A50E947A0AF501868D978D8816990648
:1002F00009F44BC0978E868E6685778580899189B3
:10030000F1E08F169104C9F060F032E08316910499
:1003100061F0E3E08E169104A1F4F501048D158DD2
:1003200012C0F501068917890EC0F501628973892B
:1003300084899589008D118D06C0F501028D138D7C
:1003400002C000E010E00E942F1D9B01AC0160E0A4
:1003500070E48CE196E40E94521CEB81FC8164AB5A
:1003600075AB86AB97ABB80180E090E00E942F1D83
:100370006B017C0182019301432D522D69817A81A9
:100380008B819C81C4960E94250FF2E08F16910408
:1003900071F5EB81FC8120AD31AD42AD53AD64AD63
:1003A00075AD86AD97ADA0E00E94D41B01F5F501B7
:1003B000608D718DEB81FC8182A993A9F496FC83F9
:1003C000EB838617970719F4F5016689778980E032
:1003D00090E00E942F1D6B017C0182019301432D4F
:1003E000522D69817A818B819C810E94250F0F900B
:1003F0000F900F900F90DF91CF911F910F91FF9071
:10040000EF90DF90CF90BF90AF909F908F907F90B4
:100410006F905F904F903F902F900895CF92DF9212
:10042000EF92FF92CF93DF93EC016A017B010E9470
:10043000F70C62E070E0CE010E94DA0DB701A60170
:10044000CE01DF91CF91FF90EF90DF90CF900C9491
:100450003D0D0E94FD1321E030E0811102C020E03B
:1004600030E088279927821B930B08954F925F9263
:100470006F927F928F929F92AF92BF92CF92DF92B4
:10048000EF92FF920F931F93CF93DF93CDB7DEB719
:10049000CE56D1090FB6F894DEBF0FBECDBF5C01BA
:1004A000CE0101960E94E2068EE1FE013196D50151
:1004B00001900D928A95E1F7C5010E94EB06F501C6
:1004C000178E168E82EA94E00E946F0CF50191A3BC
:1004D00080A3892B19F482EA94E00BC08AEA94E0A5
:1004E0000E946F0CF50193A382A3892B81F48AEA01
:1004F00094E09F938F938BEB93E09F938F930E9455
:1005000023210F900F900F900F9081E054C181EF45
:1005100093E00E946F0CF50195A384A3892B19F435
:1005200081EF93E0E6CF84ED93E00E94130A4C0143
:10053000892B19F484ED93E002C18FEE93E00E94C1
:10054000130A009719F48FEE93E0F9C0F50197A212
:1005500086A291A780A783EF93E00E94130A4C0123
:10056000892B19F483EF93E0EAC087EF93E00E94B0
:10057000130A3C01892B19F487EF93E0E0C0F501E1
:10058000C688D78804A115A1668577858089918959
:100590000E942F1D0E94C91C9F938F937F936F937E
:1005A0005F934F933F932F93E12CF12C9301A40180
:1005B0006BEF73E0CE014F960E94770880E5FE0155
:1005C0007F96D5019A9601900D928A95E1F7A50143
:1005D0006EE271E04501FAE28F0E911CC4010E94A7
:1005E0004B09F501E659FE4F9182808280E094E04C
:1005F0000E94130A4C010FB6F894DEBF0FBECDBFA8
:10060000892B19F480E094E09AC084E094E00E9481
:10061000130A3C01892B19F484E094E090C0F501A1
:10062000C084D18400A111A16481758186819781E4
:100630000E942F1D0E94C91C9F938F937F936F93DD
:100640005F934F933F932F93E12CF12C9301A401DF
:1006500068E074E0CE014F960E94770820E5FE0125
:100660007F96C50186589F4FDC0101900D922A9517
:10067000E1F7F501E459FE4F918380838DE094E02A
:100680000E94130A4C010FB6F894DEBF0FBECDBF17
:10069000892B19F48DE094E052C081E194E00E942E
:1006A000130A3C01892B19F481E194E048C0F5015B
:1006B000C084D18400A111A1648175818681978154
:1006C0000E942F1D0E94C91C9F938F937F936F934D
:1006D0005F934F933F932F93EE24E394F12C930178
:1006E000A40165E174E0CE014F960E94770820E5F1
:1006F000FE017F96C50186539F4FDC0101900D924C
:100700002A95E1F7F501E259FE4F918380838AE152
:1007100094E00E94130A4C010FB6F894DEBF0FBE9E
:10072000CDBF892B19F48AE194E009C08EE194E0F1
:100730000E94130A3C01892B39F48EE194E09F93C7
:100740008F9388ED93E0D9CE250196EE491A9EEF5E
:10075000590AF501C084D18402A113A16481758175
:10076000868197810E942F1D0E94C91C9F938F93A1
:100770007F936F935F934F933F932F93E12CF12CD3
:100780009301A40162E274E0CE014F960E947708C3
:1007900080E5FE017F96D20101900D928A95E1F7E6
:1007A000F501E059FE4F518240820FB6F894DEBF4A
:1007B0000FBECDBF80E0C259DF4F0FB6F894DEBF49
:1007C0000FBECDBFDF91CF911F910F91FF90EF90A2
:1007D000DF90CF90BF90AF909F908F907F906F9061
:1007E0005F904F9008950F931F93CF93DF93EC0189
:1007F000488159816A817B8188A199A10E940E025A
:10080000488159816A817B818AA19BA10E940E0245
:100810004A855B856C857D858CA19DA10E940E0219
:1008200060E08EA19FA10E94500A60E08EA19FA16E
:100830000E947A0A61E088A599A50E94500A60E0AA
:1008400088A599A50E947A0A8E0106591E4FCE5896
:10085000DE4F0C171D0739F0F801819191918F013E
:100860000E940909F6CFDF91CF911F910F91089552
:100870002F923F924F925F926F927F928F929F92B0
:10088000AF92BF92CF92DF92EF92FF920F931F939E
:10089000CF93DF9300D000D0CDB7DEB79C838B839E
:1008A00009831A8319012A013B01460142E050E005
:1008B00067E274E0C7010E949220892B09F0B3C05F
:1008C00087010E5F1F4F44E050E06AE274E0C80108
:1008D0000E949220892B39F50B811C8106591E4FED
:1008E000CB80DC808EE8C81A8EEFD80A96E0E90E3D
:1008F000F11C0C151D0509F496C0F8018191919128
:100900008F019C838B83FC016081718144E050E006
:10091000C7010E949220892B61F7EB81FC8183A59E
:100920008F9382A535C044E050E068E374E0C801CD
:100930000E949220892B09F076C0CB80DC80F6E9FA
:10094000CF1AFEEFDF0A8B819C818E589E4F9C83CD
:100950008B8387010A5F1F4F8B819C81C816D90644
:1009600009F461C0F601A190B1906F01F5016081B9
:10097000718144E050E0C8010E949220892B61F708
:10098000F7018285811114C0F50183A98F9382A993
:100990008F938FE294E09F938F939F928F920E9408
:1009A000AB200F900F900F900F900F900F903FC0C3
:1009B0001092B7061092B60640E150E060E070E099
:1009C000C7010A960E94A11E6B017C018091B606A8
:1009D0009091B706892B39F5F1E1CF16F7E2DF06E2
:1009E000E104F10400F5B60180E090E00E942F1DC3
:1009F000F501E85BFF4F20813181428153810E94E4
:100A00004D1C8823A1F0C701B6010E942F1D6B0168
:100A10007C0109811A819101A201B301C501C4962B
:100A20000E94250F04C0B4018DE394E003C0B4011B
:100A300087E494E00F900F900F900F90DF91CF918B
:100A40001F910F91FF90EF90DF90CF90BF90AF90EC
:100A50009F908F907F906F905F904F903F902F90DE
:100A60000C94F9206F927F928F929F92AF92BF92D7
:100A7000CF92DF92EF92FF920F931F93CF93DF936A
:100A8000D02EC12EB22EA32E942E852E762E672E1A
:100A90007C0126E9E21A2EEFF20AEC01CE58DE4F75
:100AA000EC16FD0679F00D2D1C2D2B2D3A2D492D20
:100AB000582D672D762DF701819191917F010E942C
:100AC0005409EECFDF91CF911F910F91FF90EF90DE
:100AD000DF90CF90BF90AF909F908F907F906F905E
:100AE0000895EF92FF920F931F93CF93DF93EC0142
:100AF0008C0106591E4F7C018EE8E81A8EEFF80A29
:100B00000E151F0539F0F801819191918F010E9416
:100B1000D709F6CF60E08EA19FA10E94500A60E045
:100B20008EA19FA10E947A0A60E088A599A50E94E3
:100B3000500A60E088A599A50E947A0A88A199A127
:100B40000E94F70C8AA19BA10E94F70C8CA19DA189
:100B5000DF91CF911F910F91FF90EF900C94F70CC4
:100B60004F925F926F927F928F929F92AF92BF92BD
:100B7000CF92DF92EF92FF920F931F93CF93DF9369
:100B80008EE295E00E9436028111D2C080E1EEE152
:100B9000F5E0DF011D928A95E9F710921D0510928C
:100BA0001C058EE494E00E9439218EE295E00E94BB
:100BB000F3030E94DF130E94AE0B209314053093C1
:100BC000150540931605509317056093180570930B
:100BD000190580931A0590931B05CAE7D4E00E947B
:100BE000AE0B29013A014B015C01809114059091F3
:100BF0001505A0911605B0911705A3019201281BB8
:100C0000390B4A0B5B0BDA01C901893E33E09307CC
:100C1000A105B10570F0BF93AF939F938F93DF93BE
:100C2000CF930E9423210F900F900F900F900F9061
:100C30000F9040921405509215056092160570921F
:100C400017058092180590921905A0921A05B09286
:100C50001B0582019301A401B5018EE295E00E947B
:100C600032050E9408140E94F91397FD42C020919A
:100C70001C0530911D058D3071F5F901E25EFA4FCA
:100C800010820091140510911505209116053091E0
:100C90001705409118055091190560911A0570913A
:100CA0001B0580E0C82E81E0D82E9EE1E92E95E05C
:100CB000F92E8EE295E00E94380440911C05509177
:100CC0001D0560E070E0C7010E94822010921D05A2
:100CD00010921C050EC0A9014F5F5F4F40315105B6
:100CE00040F450931D0540931C05F901E25EFA4F54
:100CF00080838091A0069091A1060E9428108823ED
:100D000009F46DCF8091A0069091A1060E942F104A
:100D1000833009F064CF0E940E148EE295E00E94A9
:100D2000710586E894E00E94392180E090E002C0DD
:100D300081E090E0DF91CF911F910F91FF90EF90B4
:100D4000DF90CF90BF90AF909F908F907F906F90EB
:100D50005F904F900895CF93C62F0E94CA218F3F76
:100D600009F48C2FCF910895CF93DF93D62FC72FFF
:100D70000E94D8218F3F2FEF920711F0682F02C0F9
:100D80006D2F9C2F862FDF91CF9108950F931F9386
:100D9000CF93DF938A01D62FC72F0E94D2216F3FB6
:100DA0002FEF72078207920719F0AB01282F03C0BB
:100DB000A8012D2F9C2FBA01822FDF91CF911F9177
:100DC0000F9108952EE1E4E9F3E0DC0101900D922A
:100DD0002A95E1F70895CF93DF93EC0180E090E04E
:100DE0000E94D2216F3F2FEF72078207920729F0EE
:100DF000462F372F282F892F04C048EA31E620E0FC
:100E000080E0488339832A838B8384E090E00E94CA
:100E1000D2216F3F2FEF72078207920729F0462FEA
:100E2000372F282F892F04C048EE33E020E080E0E0
:100E30004C833D832E838F8368E873E188E090E0E4
:100E40000E94B406998788878AE090E00E94D221A8
:100E50006F3F2FEF72078207920729F0462F372F37
:100E6000282F892F04C048E438EE21E080E04A872B
:100E70003B872C878D878EE090E00E94D2216F3FC8
:100E80002FEF72078207920729F0462F372F282F5E
:100E9000892F04C040E43DE023E080E04E873F8797
:100EA000288B898B82E190E00E94D2216F3F2FEF47
:100EB00072078207920729F0462F372F282F892F94
:100EC00004C040E83DE82BE580E04A8B3B8B2C8B4F
:100ED0008D8B6BEE70E086E190E00E94B4069F8BF4
:100EE0008E8B64EC79E088E190E00E94B406998FE3
:100EF000888F6CEA7DE08AE190E00E94B4069B8FC7
:100F00008A8F60E177E28CE190E00E94B4069D8FC9
:100F10008C8FDF91CF910895CF93DF93EC014881BF
:100F200059816A817B8180E090E00E94F0214C81B0
:100F30005D816E817F8184E090E00E94F021688570
:100F4000798588E090E00E94FC214A855B856C856C
:100F50007D858AE090E00E94F0214E855F8568895A
:100F600079898EE090E00E94F0214A895B896C8942
:100F70007D8982E190E00E94F0216E897F8986E17F
:100F800090E00E94FC21688D798D88E190E00E94BC
:100F9000FC216A8D7B8D8AE190E00E94FC216C8DA2
:100FA0007D8D8CE190E0DF91CF910C94FC210F932B
:100FB0001F93FC0100831183228333834483558371
:100FC00066837783108611861286138614861586AB
:100FD00016861786108A1F910F9108952F923F92BF
:100FE0004F925F926F927F928F929F92AF92BF9239
:100FF000CF92DF92EF92FF920F931F93CF93DF93E5
:10100000CDB7DEB727970FB6F894DEBF0FBECDBFC2
:10101000FC01902E1F832E8339834A835B836C836C
:101020007D83BE2D208431844284538464847584FE
:101030008684A7859101A201B301882D9A2FA02E45
:10104000B12ECE80D980EA80FB800C811D810E9468
:10105000CB1B09F048F4108611861286138614867D
:1010600015861686178628C09101A201B301882D26
:101070009A2FA0E080880E94D41B11F0B82D1CC0CC
:10108000B815D1F0292D3F814E8159816A817B812C
:101090008C819D81A080B180C280D380E480F58066
:1010A000068117810E94AD1B2087318742875387B5
:1010B0006487758786879787B08B8B2F27960FB6A7
:1010C000F894DEBF0FBECDBFDF91CF911F910F917E
:1010D000FF90EF90DF90CF90BF90AF909F908F9058
:1010E0007F906F905F904F903F902F9008952F9238
:1010F0003F924F925F926F927F928F929F92AF92A8
:10110000BF92CF92DF92EF92FF920F931F93CF93F4
:10111000DF93CDB7DEB728970FB6F894DEBF0FBECA
:10112000CDBF5C013B014A013A8329831C830B83B9
:101130002D8C3E8C4F8C58A089A18D839AA19E83C3
:10114000EBA1EF83FCA1F88708EE13E020E030E08C
:1011500040E050E060E070E0C50104960E94D707CF
:1011600000E412E42FE030E040E050E060E070E0A6
:10117000C50148960E94DA0A85010C5C1F4F910157
:10118000A2016D817E818F8198850E946C1D9B01DB
:10119000AC0160E070E48CE196E40E94521CAB016B
:1011A000BC01C8010E940B0FF5017182608293821D
:1011B0008282158A178A168A89819A8195A784A7BF
:1011C0008B819C8197A786A7F1AAE0AAD3AAC2AA7D
:1011D000E45BFF4F11821082329611821082C501AA
:1011E00028960FB6F894DEBF0FBECDBFDF91CF912A
:1011F0001F910F91FF90EF90DF90CF90BF90AF9035
:101200009F908F907F906F905F904F903F902F9026
:1012100008950F931F93CF93DF93EC0160E08A81D1
:101220009B810E94500A61E08A819B810E947A0A18
:1012300061E08CA59DA50E94500A60E08CA59DA54B
:101240000E947A0A8A819B810E94680A8D8B8C8B0E
:1012500068A979A942E050E08EA59FA50E94D50E0D
:101260004AA95BA968A979A98EA59FA50E946F0EBE
:101270008E01085B1F4F6AA97BA980E090E00E9465
:101280002F1DF8016083718382839383DF91CF9157
:101290001F910F910895FC01E45BFF4F7183608300
:1012A00032965183408308956F927F928F929F92DE
:1012B000AF92BF92CF92DF92EF92FF920F931F9364
:1012C000CF93DF93EC01380149015A016B018A8108
:1012D0009B810E94680AE82E9401A501B601CE0107
:1012E00004960E94EE079D89882341F0992319F006
:1012F00024E030E00AC023E030E007C0992319F071
:1013000022E030E002C021E030E03F8B2E8B8D8B5D
:101310008E899F89039721F4EE24E394F12C02C077
:10132000E12CF12C83019401A501B601CE01489670
:101330000E94F40AFE01E45BFF4F0190F081E02D72
:10134000309751F0DE01A25BBF4FED90FC9094010D
:10135000A501B601CE01099583019401A501B6014D
:10136000CE01C4960E94470F0E94001D4B015C01F4
:101370008AA99BA98815990559F068A979A9A4019A
:101380008EA59FA50E946F0E811102C09BAA8AAAFA
:10139000DF91CF911F910F91FF90EF90DF90CF9051
:1013A000BF90AF909F908F907F906F900895CF9354
:1013B000DF93EC0168A979A940E050E08EA59FA5D4
:1013C0000E946F0E68A979A940E050E08EA59FA504
:1013D0000E94D50E60E08CA59DA50E94500A60E099
:1013E0008CA59DA50E947A0A60E08A819B810E945B
:1013F000500A60E08A819B81DF91CF910C947A0A38
:1014000088E290E008958832910554F44AE0489FBC
:101410009001499F300D1124C901825F9E4F0895AC
:1014200080E090E00895EF92FF920F931F93CF9387
:10143000DF937C010EE011E0C0E0D0E0B701F801DD
:10144000808191810E948920892B49F42AE02C9F78
:10145000C0012D9F900D1124825F9E4F08C02196E0
:10146000065F1F4FC832D10549F780E090E0DF9159
:10147000CF911F910F91FF90EF900895DC0114968A
:10148000ED91FC911597208130E0F90112960C90B6
:1014900002C0F595E7950A94E2F7CF0181700895AF
:1014A000DC011496ED91FC911597408121E030E02C
:1014B000C90112960C9002C0880F991F0A94E2F796
:1014C000662311F0842B02C08095842380830895C5
:1014D000DC011696ED91FC911797208130E0F9011F
:1014E00012960C9002C0F595E7950A94E2F7CF01A9
:1014F00081700895DC011896ED91FC911997408157
:1015000021E030E0C90112960C9002C0880F991FAB
:101510000A94E2F7662311F0842B02C0809584239D
:10152000808308958091A0069091A1060E942F10BB
:1015300090E00895CF93C82F8A3039F46DE0809100
:10154000A0069091A1060E9442106C2F8091A006E7
:101550009091A1060E94421080E090E0CF91089502
:10156000CF92DF92EF92FF92CF93DF936A017B01DC
:101570000E94E70FEC010097B1F0B701A6010E94AD
:10158000F70FD093A106C093A0068EE992E0909346
:10159000BD068093BC069093BB068093BA069093D9
:1015A000B9068093B806DF91CF91FF90EF90DF905E
:1015B000CF9008950F931F93FC0100831183228322
:1015C000338344835583668377831086118612861E
:1015D00013861486158616861786118A108A138A32
:1015E000128A1F910F9108954F925F926F927F928E
:1015F0008F929F92AF92BF92CF92DF92EF92FF9223
:101600000F931F93CF93DF93FC01280139014A0107
:10161000D62FC72F80899189D701A80FB91FB18B09
:10162000A08B2085318542855385648575858685A7
:1016300097855801630174010D2F1C2F0E94CB1B4D
:1016400009F0D8F49201A301B4018D2F9C2FA08042
:10165000B180C280D380E480F580068117810E942A
:10166000AD1B2087318742875387648775878687BC
:101670009787B38BA28B118A108A82899389DF9115
:10168000CF911F910F91FF90EF90DF90CF90BF907F
:10169000AF909F908F907F906F905F904F90089544
:1016A0001F920F920FB60F9211242F933F934F93D7
:1016B0005F936F937F938F939F93AF932091A20635
:1016C0003091A3064091A4065091A5066091A6060C
:1016D0007091A7068091A8069091A906A1E00E94AA
:1016E000B61B2093A2063093A3064093A406509302
:1016F000A5066093A6067093A7068093A80690930C
:10170000A906AF919F918F917F916F915F914F91BA
:101710003F912F910F900FBE0F901F9018959FB77C
:10172000F894EEE6F0E0108282E084BD24E025BD6E
:1017300016BC2AEF27BD1092A2061092A3061092A3
:10174000A4061092A5061092A6061092A706109263
:10175000A8061092A90680839FBF0895AF92BF92FA
:10176000CF92DF92EF92FF920F931F93CF938FB799
:10177000F894C6B58FBFFFB7F8942091A2063091B8
:10178000A3064091A4065091A5066091A60670910B
:10179000A7068091A8069091A906E6B5FFBFCE13D3
:1017A000E6CFEAEFAE2EB12CC12CD12CE12CF12CDE
:1017B00000E010E00E94871AAC2E0E94AD1B04E0EE
:1017C0000E94761BCF911F910F91FF90EF90DF90B9
:1017D000CF90BF90AF9008952F923F924F925F921B
:1017E0006F927F928F929F92AF92BF92CF92DF9231
:1017F000EF92FF920F931F93CF93DF93CDB7DEB796
:1018000028970FB6F894DEBF0FBECDBF29013A016D
:101810004B0188879F8320EAA22E3FE0B32EC12C84
:10182000D12CE12CF12C00E010E092010E94E21A90
:10183000190149835A836B837C838D839E83920134
:10184000A301B40188859F810E94E01A04E00E94F0
:10185000911B8FB7F8942092A2063092A30699812B
:101860009093A4069A819093A5069B819093A606D7
:101870009C819093A7069D819093A8069E8190934A
:10188000A90626BD8FBF28960FB6F894DEBF0FBEFF
:10189000CDBFDF91CF911F910F91FF90EF90DF901F
:1018A000CF90BF90AF909F908F907F906F905F9000
:1018B0004F903F902F90089584E090E008958430F9
:1018C000910554F44FE2489F9001499F300D112437
:1018D000C90184559D4F089580E090E00895EF92EE
:1018E000FF920F931F93CF93DF937C010CEA12E0DA
:1018F000C0E0D0E0B701F801808191810E94892089
:10190000892B49F42FE22C9FC0012D9F900D1124AB
:1019100084559D4F08C02196015D1F4FC430D105ED
:1019200049F780E090E0DF91CF911F910F91FF90F8
:10193000EF900895FC01A081B1811C92A281B38136
:1019400086858C93A481B5811C92A681B78111965E
:101950001C921E92A589B68911961C921E92A18D89
:10196000B28D11961C921E92A58DB68D11961C9269
:101970001E92A085B18511961C921E92A285B385F8
:101980001C920484F585E02D8081808380E0089599
:10199000FC01A081B1811C92A281B38182898C93C8
:1019A000A481B5811C92A681B7811C92A085B185C6
:1019B0001C92A285B38511961C921E92A38DB48DA4
:1019C0001C92A78DB0A11C92A3A1B4A11C92A7A1A7
:1019D000B0A51C92A485B5851C92A685B7858C916F
:1019E0008C930088F189E02D108280E00895FC013D
:1019F000228133812A30310531F02031310531F433
:101A000004960C949A0C04960C94C80C81E00895EA
:101A1000CF93DF93EC019A01AB0160E074E284EFB5
:101A200090E00E94561A2115310581E048075105C2
:101A300030F4E885F9853183208380E001C081E0BE
:101A4000DF91CF910895CF93DF93EC019A01AB0121
:101A500060E074E284EF90E00E94561A2F3F310557
:101A60004105510509F028F4EBA1FCA1208380E099
:101A700001C081E0DF91CF910895CF93DF93EC0116
:101A80009A01AB018A819B818A30910599F0409738
:101A900011F560E074E284EF90E00E94561A21157F
:101AA000310581E048075105B0F4EC85FD853183AF
:101AB00020830FC060E074E284EF90E00E94561A29
:101AC0002F3F31054105510509F028F4EFA1F8A594
:101AD000208380E001C081E0DF91CF910895CF9312
:101AE000DF93FC01A081B1812C91C281D3819881C7
:101AF00042898189842B8095822334892389232BF1
:101B0000522F509595236230710579F038F46115A4
:101B1000710581F06130710549F013C063307105C2
:101B200039F06430710529F00CC0842B922B02C06F
:101B3000842B932B8C930280F381E02D908380E0A3
:101B400001C081E0DF91CF910895CF93DF93FC0135
:101B5000A081B1812C91C481D5818881C681D78132
:101B60009881408D318D432B342F30953223528D07
:101B7000252F20952823C68987898C2B809589233A
:101B80006230710539F06430710519F0672B71F41A
:101B900003C08C2B342B252B3C93A481B5812C9333
:101BA0000680F781E02D808380E001C081E0DF9135
:101BB000CF910895FC01228133812A30310531F023
:101BC0002031310531F404960C946F0D04960C9479
:101BD000A50D81E00895FC018281938108978930E9
:101BE000910528F4FC01EE54FC4F8081089580E0BB
:101BF0000895EF92FF920F931F93CF93DF937C0191
:101C00008B016330710548F5DC011896ED91FC916C
:101C10001997C081D1819E01DA010E94781A20E1D2
:101C200037E240E050E00E94561AF801EE0FFF1F25
:101C3000EE0FFF1FEE0DFF1D0588F689E02DCE018A
:101C4000A0E0B0E0281739074A075B0710F4DA0173
:101C5000C9019183808380E001C081E0DF91CF9151
:101C60001F910F91FF90EF900895EF92FF920F93C5
:101C70001F93CF937C018B016430710548F5DC0123
:101C80009396ED91FC919497C0812C2F30E0DA016E
:101C90000E94781A20E137E240E050E00E94561A94
:101CA000F801EE0FFF1FEE0FFF1FEE0DFF1D038C5F
:101CB000F48DE02D8C2F90E0A0E0B0E028173907DC
:101CC0004A075B0710F4DA01C901808380E001C094
:101CD00081E0CF911F910F91FF90EF900895FC014B
:101CE000228133812A30310531F02031310531F440
:101CF00004960C94F90D04960C94350E81E0089529
:101D0000CF93DF93FC016330710520F5C081D18151
:101D10002881DB01AA0FBB1FAA0FBB1FAE0FBF1F7D
:101D200057969C9140FF02C0922B02C0909592233F
:101D30006A5F7F4F660F771F660F771FE60FF71FEB
:101D4000808141FF02C0982B02C080959823988320
:101D500080E001C081E0DF91CF910895CF93DF93C0
:101D6000FC0164307105E8F4A081B1812C91660F0B
:101D7000771F660F771FEF01C60FD71F9D8D40FF9E
:101D800002C0922B02C090959223E60FF71F868D1A
:101D900041FF02C0982B02C0809598239C9380E05D
:101DA00001C081E0DF91CF910895EF92FF920F93F0
:101DB0001F93CF93DF93EC018B017A010E94EB0D0F
:101DC00090E008171907F8F48A819B818A30910501
:101DD00071F04097C1F4A701B801CE010496DF91DC
:101DE000CF911F910F91FF90EF900C94800EA7015F
:101DF000B801CE010496DF91CF911F910F91FF9012
:101E0000EF900C94AE0E81E0DF91CF911F910F9176
:101E1000FF90EF900895FC014083518362837383A8
:101E200014821582168217821086118612861386F6
:101E30001486158616861786108A118A128A138AC6
:101E4000148A158A168A178A0895CF92DF92EF9224
:101E5000FF920F931F93FC0104831583268337831E
:101E6000408751876287738784899589A689B78956
:101E700084879587A687B787C08AD18AE28AF38A42
:101E80001F910F91FF90EF90DF90CF9008954F92A8
:101E90005F926F927F928F929F92AF92BF92CF92FA
:101EA000DF92EF92FF920F931F93CF93DF93EC019A
:101EB000522E632E742E852E962EB72FAC80BD80A9
:101EC000CE80DF80E884F984FA85EB859501A60150
:101ED000B7018F2F9E2FA0E00E94D41B09F45FC092
:101EE0009801452D562D672D782D892D9B2F0F2F6D
:101EF0001E2F0E94C21B0E946C1D288139814A81BD
:101F00005B810E94341E2B013C018C849D84AE8435
:101F1000BF84C888D988EA88FB88A7019601C501D3
:101F2000B4010E942F1E18168CF4A3019201C50162
:101F3000B4010E94E01B4B015C019B01AC01C70195
:101F4000B6010E942F1E1816F4F018C0A7019601C2
:101F5000C501B4010E944D1C87FF19C0A501940161
:101F6000C301B2010E94E11B4B015C019B01AC016A
:101F7000C701B6010E944D1C87FD05C08C8A9D8A51
:101F8000AE8ABF8A0CC0CC8ADD8AEE8AFF8A1C82A8
:101F90001D821E821F82188619861A861B866C89EE
:101FA0007D898E899F89DF91CF911F910F91FF903D
:101FB000EF90DF90CF90BF90AF909F908F907F90E9
:101FC0006F905F904F90089581E090E0089518160B
:101FD000190654F041E1489F9001499F300D1124AA
:101FE000C90188599C4F089580E090E00895CF93EF
:101FF000DF93EC019A01AB0184E0220F331F441FF1
:10200000551F8A95D1F760E074E284EF90E00E945A
:10201000561ABA01A9014150510961097109EA85AD
:10202000FB85BB27A72F962F852F8083E885F98511
:102030004083E881F9818E858083EA81FB818F85E9
:102040008083EC81FD8188898083DF91CF91089521
:10205000FC01A081B1819C91848589230895FC01B4
:10206000A081B18194858C918923E9F30680F78161
:10207000E02D80810895FC01A081B1819C9185852E
:1020800089230895FC01A081B18195858C918923D4
:10209000E9F30680F781E02D60830895A0E1B0E0C8
:1020A000E4E5F0E10C943F1B7C011B016A01FC019B
:1020B00017821682838181FF44C39E012F5F3F4FA9
:1020C0003901F7019381F10193FD859193FF81918E
:1020D0001F01882309F431C3853239F493FD8591BA
:1020E00093FF81911F01853239F4B70190E00E947E
:1020F000BD2056016501E5CF10E0512C912CFFE188
:10210000F915D8F08B3279F038F4803279F08332D7
:10211000A1F4F92DF0612EC08D3261F0803369F4A5
:10212000292D21602DC0392D3260932E892D846098
:10213000982E2AC0E92DE86015C097FC2DC020ED2F
:10214000280F2A3088F496FE06C03AE0139F200D2F
:102150001124122F19C08AE0589E200D1124522EEE
:10216000E92DE0629E2E10C08E3231F496FCE5C25D
:10217000F92DF0649F2E08C08C3621F4292D20689B
:10218000922E02C0883641F4F10193FD859193FFB0
:1021900081911F018111B3CF9BEB980F933020F4F5
:1021A000992D9061805E07C09BE9980F933008F0ED
:1021B00066C1992D9F7E96FF16E09F73992E8536F6
:1021C00019F49064992E08C0863621F4392F3068AE
:1021D000932E02C01111115097FE07C01C3350F40A
:1021E00044244394410E27E00BC0183038F027E018
:1021F00017E005C027E09CE3492E02C0212F412CA7
:10220000560184E0A80EB11CF601608171818281C3
:102210009381042DA3010E94961F6C01F981FC8714
:10222000F0FF02C0F3FF06C091FC06C092FE06C09C
:1022300000E205C00DE203C00BE201C000E08C85A6
:102240008C7019F001115AC29BC297FE10C04C0C41
:10225000FC85F4FF04C08A81813309F44A94141484
:1022600074F528E0241578F588E0482E2CC096FCFB
:102270002AC0812F90E08C159D059CF03CEFC31681
:102280003FEFD30674F0892D8068982E0AC0E2E0F3
:10229000F0E0EC0FFD1FE10FF11D8081803319F498
:1022A00011501111F4CF97FE0EC044244394410EF7
:1022B000812F90E0C816D9062CF41C1904C04424C0
:1022C000439401C010E097FE06C01C141D0434F4B2
:1022D000C601019605C085E090E002C081E090E073
:1022E00001110196112331F0212F30E02F5F3F4F74
:1022F000820F931F252D30E08217930714F4581A8C
:1023000001C0512C892D897049F4552039F0B7014D
:1023100080E290E00E94BD205A94F7CF002329F07C
:10232000B701802F90E00E94BD2093FC09C055208A
:1023300039F0B70180E390E00E94BD205A94F7CFB6
:1023400097FE4CC04601D7FE02C0812C912CC601DD
:1023500088199909F301E80FF91FFE87ED879601A7
:1023600024193109388B2F87012F10E01195019521
:1023700011093FEF8316930629F4B7018EE290E02E
:102380000E94BD20C814D9044CF08F859889881507
:10239000990524F4ED85FE85818101C080E3F1E09B
:1023A0008F1A91082D853E852F5F3F4F3E872D87E1
:1023B000801691062CF0B70190E00E94BD20D9CF85
:1023C000C814D90441F49A81963320F4953319F452
:1023D0003C8534FF81E3B70190E04EC08A818133B0
:1023E00019F09C859F7E9C87B70190E00E94BD20DC
:1023F000111105C094FC18C085E690E017C0B70124
:102400008EE290E00E94BD201E5F82E001E0080F96
:10241000F301E80FF11D8081B70190E00E94BD201B
:10242000802F0113F3CFE6CF85E490E0B7010E943F
:10243000BD20D7FC06C0C114D10441F4EC85E4FFF3
:1024400005C0D194C194D1088DE201C08BE2B701DF
:1024500090E00E94BD2080E32AE0C216D1042CF057
:102460008F5FFAE0CF1AD108F7CFB70190E00E9452
:10247000BD20B701C601C0960E94BD2054C183365D
:1024800031F0833779F0833509F056C020C056010A
:1024900032E0A30EB11CF6018081898301E010E0D7
:1024A000630112C05601F2E0AF0EB11CF601C0800C
:1024B000D18096FE03C0612F70E002C06FEF7FEF06
:1024C000C6010E94A0208C01F92DFF7714C056018F
:1024D00022E0A20EB11CF601C080D18096FE03C09E
:1024E000612F70E002C06FEF7FEFC6010E9477207E
:1024F0008C01F92DF0689F2EF3FD1AC0852D90E018
:1025000008171907A8F4B70180E290E00E94BD20E7
:102510005A94F4CFF60197FC859197FE81916F0153
:10252000B70190E00E94BD2051105A94015011094A
:102530000115110579F7F7C0843611F0893661F578
:10254000560197FE09C024E0A20EB11CF60160817D
:102550007181828193810AC0F2E0AF0EB11CF60155
:1025600060817181072E000C880B990BF92DFF7685
:102570009F2E97FF09C090958095709561957F4F2C
:102580008F4F9F4FF0689F2E2AE030E0A3010E94FA
:102590006921C82EC6183FC0092D853721F40F7E4A
:1025A0002AE030E01DC0097F8F3691F018F488359D
:1025B00059F0C3C0803719F0883711F0BEC00061F0
:1025C00004FF09C0046007C094FE08C0066006C08E
:1025D00028E030E005C020E130E002C020E132E038
:1025E000560107FF09C084E0A80EB11CF601608106
:1025F00071818281938108C0F2E0AF0EB11CF601B7
:102600006081718180E090E0A3010E946921C82E61
:10261000C6180F77902E96FE0BC0092D0E7FC1169F
:1026200050F494FE0AC092FC08C0092D0E7E05C02D
:10263000DC2C092D03C0DC2C01C0D12E04FF0DC001
:10264000FE01EC0DF11D8081803311F4097E09C07B
:1026500002FF06C0D394D39404C0802F867809F07B
:10266000D39403FD11C000FF06C01C2DD51480F4C7
:10267000150D1D190DC0D51458F4B70180E290E076
:102680000E94BD20D394F7CFD51410F45D1801C07B
:10269000512C04FF10C0B70180E390E00E94BD20E0
:1026A00002FF17C001FD03C088E790E002C088E583
:1026B00090E0B7010CC0802F867859F001FF02C06E
:1026C0008BE201C080E207FD8DE2B70190E00E943D
:1026D000BD20C11638F4B70180E390E00E94BD2010
:1026E0001150F7CFCA94F301EC0DF11D8081B701B1
:1026F00090E00E94BD20C110F5CF15C0F4E0F515A3
:1027000060F584E0581A93FE1FC0011127C02C8584
:1027100023FF2AC00CEA10E0392D3071932EF80106
:102720008491811124C0552009F4E4CCB70180E2E2
:1027300090E00E94BD205A94F6CFF70186819781E0
:1027400026C08FEF9FEF23C0B70180E290E00E9488
:10275000BD205A945110F8CFD8CF512CB701802FFB
:1027600090E00E94BD20D3CF00EB10E0D5CF9110B8
:102770008052B70190E00E94BD200F5F1F4FCFCF66
:1027800023E0251510F483E0BDCF512CC0CF609617
:10279000E2E10C945B1B40E452E46FE070E080E007
:1027A00090E00E94B00A0E948F0B789460E070E085
:1027B00080E090E00E94B00580E090E0089584B74A
:1027C000877F84BF0FB6F894A895809160008861D8
:1027D00080936000109260000FBE90E080E80FB61A
:1027E000F89480936100909361000FBE78940C94EC
:1027F000751489E793E00C94BD17682F89E793E07F
:102800000C944E179EB381E0953009F080E0089556
:1028100089E793E00E94A7170C940C170C941914E5
:1028200089E793E00C94261789E793E00C94F3175B
:1028300008950E9486140E948E14E0EEF0E08081DC
:1028400081608083E8EDF0E080818F77808319BC20
:10285000A7EDB0E08C918E7F8C9380818F7E8083FA
:102860001092AD0608950F931F93CF93DF930E94AC
:1028700086140E948E14C8EDD0E088818F778883FB
:1028800088818068888388818F7D888319BC1EBA7F
:102890001092AA061092AC061092AB0600EE10E061
:1028A000F80180818B7F808388818160888342E00A
:1028B00060E080E00E949419E1EEF0E080818E7F7C
:1028C0008083E2EEF0E08081816080838081886097
:1028D0008083F80180818E7F8083888180618883F6
:1028E000DF91CF911F910F910895E8EDF0E0808185
:1028F0008F7E8083E7EDF0E080818160808384E0DB
:1029000082BF81E08093AD060C943314E8EDF0E0D3
:1029100080818E7F80831092E20008951092DA0009
:102920001092E10008951F920F920FB60F9211249A
:102930002F933F934F935F936F937F938F939F93C7
:10294000AF93BF93EF93FF938091E10082FF0BC0A1
:102950008091E20082FF07C08091E1008B7F80932D
:10296000E1000E940B178091DA0080FF1DC080916A
:10297000D80080FF19C08091DA008E7F8093DA0042
:102980008091D90080FF0CC080E189BD82E189BDC2
:1029900009B400FEFDCF81E08EBB0E940B1704C07E
:1029A00019BC1EBA0E940B178091E10080FF18C06D
:1029B0008091E20080FF14C08091E2008E7F8093BE
:1029C000E2008091E20080618093E2008091D80073
:1029D00080628093D80019BC85E08EBB0E940B17E3
:1029E0008091E10084FF2FC08091E20084FF2BC022
:1029F00080E189BD82E189BD09B400FEFDCF8091EF
:102A0000D8008F7D8093D8008091E1008F7E8093E5
:102A1000E1008091E2008F7E8093E2008091E200ED
:102A200081608093E2008091AA06882311F084E0FF
:102A300007C08091E30087FD02C081E001C083E010
:102A40008EBB0E940B178091E10083FF28C080910C
:102A5000E20083FF24C08091E100877F8093E10042
:102A600082E08EBB1092AA068091E1008E7F809357
:102A7000E1008091E2008E7F8093E2008091E2008D
:102A800080618093E20042E060E080E00E9494195F
:102A90008091F00088608093F0000E940B17FF91F6
:102AA000EF91BF91AF919F918F917F916F915F91C6
:102AB0004F913F912F910F900FBE0F901F9018953F
:102AC0001F920F920FB60F9211242F933F934F93A3
:102AD0005F936F937F938F939F93AF93BF93CF93A6
:102AE000DF93EF93FF93C091E900CF708091EC00EA
:102AF000D82FD17080FDD0E81092E9008091F000CD
:102B0000877F8093F00078940E94A4151092E900CA
:102B10008091F00088608093F000CD2BCF70C0933F
:102B2000E900FF91EF91DF91CF91BF91AF919F911C
:102B30008F917F916F915F914F913F912F910F9066
:102B40000FBE0F901F9018951F93CF93DF93CDB7B3
:102B5000DEB7AA970FB6F894DEBF0FBECDBFEEEA80
:102B6000F6E08091F100819326E0E63BF207C9F799
:102B70000E9414148091E80083FF35C18091AE0655
:102B80009091AF06953009F484C030F49130A9F1EA
:102B900068F0933091F127C1983009F4F3C099306F
:102BA00009F4FFC0963009F01EC195C0803821F0AD
:102BB000823809F018C108C08091AB069091AC062C
:102BC000992389F082600FC08091B2068F708730A0
:102BD00008F009C18093E9008091EB0085FB88270C
:102BE00080F91092E9009091E800977F9093E800B7
:102BF0008093F1001092F100D0C0282F2D7F09F0B2
:102C0000F2C0882319F0823061F0EDC08091B006E7
:102C1000813009F0E8C0933009F080E08093AC0681
:102C20002EC08091B00681112AC08091B2068F70AB
:102C30002FEF280F263008F0D6C08093E9002091AE
:102C4000EB0020FF1CC0933021F48091EB008062E8
:102C500014C09091EB0090619093EB0021E030E084
:102C6000A90102C0440F551F8A95E2F74093EA007C
:102C70001092EA008091EB0088608093EB00109244
:102C8000E9008091E800877F8093E8000E94071A9E
:102C9000AAC08111A8C01091B0061F778091E300EF
:102CA0008078812B8093E3008091E800877F809378
:102CB000E8000E94071A8091E80080FFFCCF809115
:102CC000E30080688093E300111102C082E001C03C
:102CD00083E08EBB88C08058823008F084C0809129
:102CE000B0069091B1068C3D53E0950779F583E0ED
:102CF0008A838AE289834FB7F894DE01139620E035
:102D00003EE051E2E32FF0E050935700E49120FFC2
:102D100003C0E295EF703F5FEF708E2F90E0EA30D6
:102D200010F0C79601C0C0968D939D932F5F2431FC
:102D300049F74FBF8091E800877F8093E8006AE2FF
:102D400070E0CE0101960E94D91816C06091B206BB
:102D50007091B306AE014F5F5F4F0E94A918BC018E
:102D6000892B09F440C09091E800977F9093E80088
:102D700089819A810E9435198091E8008B77809330
:102D8000E80031C0803879F58091E800877F809332
:102D9000E8008091AA068093F1008091E8008E7788
:102DA00073CF811120C08091B0069091B106992710
:102DB0000297CCF48091E800877F8093E8008091AF
:102DC000B0068093AA060E94071A8091AA06811174
:102DD00006C08091E30087FD02C081E001C084E06D
:102DE0008EBB0E9410148091E80083FF0AC080917E
:102DF000E800877F8093E8008091EB0080628093F9
:102E0000EB00AA960FB6F894DEBF0FBECDBFDF91E0
:102E1000CF911F9108950895CF938EB38823A1F089
:102E2000C091E900CF709091EC00892F817090FDE6
:102E300080E8C82B1092E9008091E80083FD0E9491
:102E4000A415CF70C093E900CF910895CF93DF937D
:102E5000EC01FC0170968BE0DF011D928A95E9F789
:102E600082E08C83898783E08E8761E0CE010196C2
:102E70000E94C919882371F061E0CE0106960E9474
:102E8000C919882339F061E0CE010B96DF91CF910B
:102E90000C94C91980E0DF91CF9108950F931F938F
:102EA000CF932EB3243001F5FC01048915892689BE
:102EB0003789012B022B032BB9F0C62F81818F702C
:102EC0008093E9008091E80085FF04C0C093F10081
:102ED00080E00BC08091E8008E778093E8000E942C
:102EE000241A882399F301C082E0CF911F910F919A
:102EF00008952EB3243049F5FC014489558966892B
:102F00007789452B462B472B01F181818F70809368
:102F1000E9002091F3008091F20090E0922B892B40
:102F200091F09091E8008091E8008E778093E8001E
:102F300095FD09C00E94241A811108C08091E80003
:102F40008E778093E80080E0089582E008952EB3A4
:102F5000243091F4FC014489558966897789452B91
:102F6000462B472B49F021812F702093E9002091B7
:102F7000E80020FD0C94791708952EB3243019F041
:102F80008FEF9FEF0895FC01448955896689778901
:102F9000452B462B472BA1F386818F708093E90048
:102FA0008091E80082FFECCF2091F3008091F20045
:102FB00090E0922B892B21F02091F10030E002C0AB
:102FC0002FEF3FEF4091F3008091F20090E0942BBF
:102FD000892B29F48091E8008B778093E800C90160
:102FE000089508950895CF93DF93EC018091E80050
:102FF00083FFACC0888190E02091B2063091B30687
:103000002817390709F0A2C08091AF06813261F01C
:1030100020F4803209F43FC099C0823209F46EC0B6
:10302000833209F481C092C08091AE06813A09F0E2
:103030008DC08091E800877F8093E8008091E80050
:1030400080FFFCCF8C899D89AE89BF898093F10078
:10305000492F5A2F6B2F77274093F100AD01662738
:1030600077274093F1008B2F9927AA27BB278093BE
:10307000F100888D8093F100898D8093F1008A8D15
:103080008093F1008091E8008E778093E800DF91D3
:10309000CF910C94071A8091AE06813209F056C088
:1030A0008091E800877F8093E8008091E80082FDAE
:1030B00004C08EB38111F9CF49C03091F100209145
:1030C000F1009091F1008091F1003C8B2D8B9E8B53
:1030D0008F8B8091F100888F8091F100898F809192
:1030E000F1008A8F8091E8008B778093E8000E943E
:1030F000071ACE01DF91CF910C9418148091AE067F
:10310000813221F58091E800877F8093E8000E945A
:10311000071A8091B0069091B106998B888BCE01E9
:10312000DF91CF910C94F1178091AE06813271F44A
:103130008091E800877F8093E8000E94071A6091E1
:10314000B006CE01DF91CF910C94F217DF91CF91B1
:103150000895292F33272230310559F023303105C6
:1031600069F021303105E9F482E190E02CE032E0B1
:103170001CC08EE390E02EEC31E017C0992781301F
:10318000910549F028F0029761F4EEEAF1E005C0FC
:10319000EAECF1E002C0E6EBF1E0849190E09F01FF
:1031A00004C080E090E020E030E0FA013183208329
:1031B00008952091B4063091B5062617370748F0D8
:1031C0006115710539F42091E8002E772093E8000D
:1031D00001C0B901FC0120E06115710571F18EB3E8
:1031E0008823E9F18530E9F18091E80083FD3BC057
:1031F0008091E80082FD2DC08091E80080FFECCF37
:103200002091F3008091F20090E0922B61157105FE
:1032100051F08830910538F421912093F1006150EC
:1032200071090196F3CF21E0089709F020E0809121
:10323000E8008E778093E800CFCF2111D0CF09C06E
:103240008EB3882361F0853061F08091E80083FDC2
:103250000AC08091E80082FFF3CF80E0089582E009
:10326000089583E0089581E008952091B406309197
:10327000B5062617370748F06115710539F4209116
:10328000E8002E772093E80001C0B901FC0120E09E
:103290006115710589F18EB3882309F43FC085302B
:1032A00009F43EC08091E80083FD3CC08091E800B5
:1032B00082FD2EC08091E80080FFEACF2091F300CC
:1032C0008091F20090E0922B6115710559F08830E1
:1032D000910540F424912093F100319661507109D9
:1032E0000196F2CF21E0089709F020E08091E800F4
:1032F0008E778093E800CCCF2111CDCF09C08EB35B
:10330000882361F0853061F08091E80083FD0AC078
:103310008091E80082FFF3CF80E0089582E0089575
:1033200083E0089581E00895982F973068F5909391
:10333000E900981739F07091EC002091ED00509160
:10334000F00003C0242F762F50E021FD02C09F5FC4
:10335000ECCF3091EB003E7F3093EB003091ED00ED
:103360003D7F3093ED003091EB0031603093EB0006
:103370007093EC002093ED005093F0002091EE004C
:1033800027FDE5CF80E008958F708093E90081E00C
:1033900008950F931F93CF93DF93062FEC0110E056
:1033A000101779F16881611103C01F5F2596F8CF6E
:1033B0002C81A981BA819B81862F8F70873010F074
:1033C00080E020C0223010F442E001C046E0E8E096
:1033D000F0E020E0EA17FB0720F42F5FEE0FFF1F5D
:1033E000F9CF2295207F422B50E4959F9001112424
:1033F000661F6627661F622B0E9494198111D5CF24
:10340000DFCF81E0DF91CF911F910F9108958091DF
:10341000AE0687FF0FC08091E80082FD04C08EB326
:103420008111F9CF10C08091E8008B770AC08EB36C
:10343000882349F08091E80080FFF9CF8091E8006F
:103440008E778093E80008952091E4003091E500A4
:1034500095E64091EC00842F817040FF22C080915E
:10346000E80080FD1CC08EB3882399F0853099F068
:103470008091EB0085FD11C04091E4005091E50082
:103480002417350731F3915011F09A01E2CF84E00F
:10349000089582E0089583E0089581E0089580E032
:1034A00008954091E80042FFDECF0895A1E21A2E70
:1034B000AA1BBB1BFD010DC0AA1FBB1FEE1FFF1FD8
:1034C000A217B307E407F50720F0A21BB30BE40B28
:1034D000F50B661F771F881F991F1A9469F760956F
:1034E0007095809590959B01AC01BD01CF01089529
:1034F000A29FB001B39FC001A39F700D811D112435
:10350000911DB29F700D811D1124911D0895DF93AF
:10351000CF931F930F939A9DF02D219FF00D8B9DBC
:10352000F00D8A9DE02DF10D039FF00D029FE00D3F
:10353000F11D4E9DE00DF11D5E9DF00D4F9DF00DB6
:103540007F936F93BF92AF925F934F93D5010E9489
:10355000781A8B01AC01D7010E94781AEB01E80FB1
:10356000F91FD6010E94D71A2F913F91D6010E94D0
:10357000781AC60FD71FE81FF91FAF91BF910E949D
:10358000D71A2F913F910E94781AC60FD71FE81FB4
:10359000F91FD6010E94781AE60FF71F9801BE01A5
:1035A000CF0111240F911F91CF91DF9108950E94B7
:1035B000781A460F571FC81FD91F08F4319608956F
:1035C000689401C0E8948F929F92CF93DF930E94FA
:1035D000EE1ADF91CF919F908F90089588249924BF
:1035E000F401E401B0E49F93AA279A158B049C048C
:1035F000ED05FE05CF05D007A10798F4AD2FDC2F10
:10360000CF2FFE2FE92D982C892E982F872F762FDC
:10361000652F542F432F322F2227B85031F7BF91F7
:1036200027C01B2EBF91BB27220F331F441F551FDE
:10363000661F771F881F991F881C991CEE1FFF1F8C
:10364000CC1FDD1FAA1FBB1F8A149B04EC05FD05C0
:10365000CE05DF05A007B10748F08A189B08EC09E2
:10366000FD09CE09DF09A00BB10B21601A94E1F628
:103670002EF49401AF01BE01CD01000C08952F92EC
:103680003F924F925F926F927F928F929F92AF92F2
:10369000BF92CF92DF92EF92FF920F931F93CF933F
:1036A000DF93CDB7DEB7CA1BDB0B0FB6F894DEBFD6
:1036B0000FBECDBF09942A88398848885F846E84FC
:1036C0007D848C849B84AA84B984C884DF80EE8046
:1036D000FD800C811B81AA81B981CE0FD11D0FB64F
:1036E000F894DEBF0FBECDBFED0108950F930830F3
:1036F00090F0982F872F762F652F542F432F322F3E
:1037000022270850F4CF220F331F441F551F661F76
:10371000771F881F991F0A95B2F70F91089597FB9D
:1037200010F8169400080F93083098F00850232FD3
:10373000342F452F562F672F782F892F902DF4CFB8
:1037400005949795879577956795579547953795FC
:1037500027950A95AAF70F9108952A0D3B1D4C1D38
:103760005D1D6E1D7F1D801F911F08950024A7FD04
:1037700000942A0F301D401D501D601D701D801DBE
:10378000901D08952A193B094C095D096E097F09AE
:10379000800B910B08952A153B054C055D056E05C0
:1037A0007F058007910708950024A7FD00942A173C
:1037B00030054005500560057005800590050895A9
:1037C0005058BB27AA270E94F81B0C94F51D0E9495
:1037D000E71D38F00E94EE1D20F039F49F3F19F4E8
:1037E00026F40C94D41D0EF4E095E7FB0C94CE1D4A
:1037F000E92F0E94061E58F3BA1762077307840761
:10380000950720F079F4A6F50C94281E0EF4E095A7
:103810000B2EBA2FA02D0B01B90190010C01CA018A
:10382000A0011124FF27591B99F0593F50F4503E35
:1038300068F11A16F040A22F232F342F4427585F27
:10384000F3CF469537952795A795F0405395C9F73F
:103850007EF41F16BA0B620B730B840BBAF09150F7
:10386000A1F0FF0FBB1F661F771F881FC2F70EC096
:10387000BA0F621F731F841F48F487957795679569
:10388000B795F7959E3F08F0B0CF9395880F08F055
:103890009927EE0F9795879508950E94AA1D08F421
:1038A00081E008950E94661C0C94F51D0E94EE1D97
:1038B00058F00E94E71D40F029F45F3F29F00C9476
:1038C000CE1D51110C94291E0C94D41D0E94061E6D
:1038D00068F39923B1F3552391F3951B550BBB273F
:1038E000AA2762177307840738F09F5F5F4F220F84
:1038F000331F441FAA1FA9F335D00E2E3AF0E0E87B
:1039000032D091505040E695001CCAF72BD0FE2FC4
:1039100029D0660F771F881FBB1F26173707480758
:10392000AB07B0E809F0BB0B802DBF01FF27935810
:103930005F4F3AF09E3F510578F00C94CE1D0C94E9
:10394000291E5F3FE4F3983ED4F3869577956795FB
:10395000B795F7959F5FC9F7880F911D9695879545
:1039600097F90895E1E0660F771F881FBB1F621764
:1039700073078407BA0720F0621B730B840BBA0B22
:10398000EE1F88F7E0950895BEE304D008F490E8B0
:103990000895BFE322273327A9010E940E1E60F17C
:1039A0009F5748F1B91740F1BFE3B91B9927B850A9
:1039B0003AF4660F771F881F991FB395D2F316C08C
:1039C000B8504AF0232F342F452F562F672F782FCA
:1039D0008827B850BAF7B85F49F08695779567950C
:1039E0005795479537952795BA95B9F716F40E94DC
:1039F000D71D88940895889460E070E0CB01089505
:103A00000E940E1E88F09F5798F0B92F9927B75142
:103A1000B0F0E1F0660F771F881F991F1AF0BA9572
:103A2000C9F714C0B13091F00E94281EB1E008958A
:103A30000C94281E672F782F8827B85F39F0B93F7C
:103A4000CCF3869577956795B395D9F73EF4909525
:103A50008095709561957F4F8F4F9F4F0895E894A3
:103A600009C097FB3EF490958095709561957F4FC6
:103A70008F4F9F4F9923A9F0F92F96E9BB27939574
:103A8000F695879577956795B795F111F8CFFAF484
:103A9000BB0F11F460FF1BC06F5F7F4F8F4F9F4FB5
:103AA00016C0882311F096E911C0772321F09EE813
:103AB000872F762F05C0662371F096E8862F70E079
:103AC00060E02AF09A95660F771F881FDAF7880F53
:103AD0009695879597F90895E894F92F96EBFF232B
:103AE00081F0121613061406440B9395F6958795EC
:103AF0007795679557954040FF23B9F71BC09927E5
:103B00000895882351F49850D2F7872B762F652F8C
:103B1000542F432F322F20E0B1F312161306140650
:103B2000440B88233AF09A95440F551F661F771F60
:103B3000881FCAF755234AF4440F551F11F460FF3C
:103B400004C06F5F7F4F8F4F9F4F880F969587956B
:103B500097F90895990F0008550FAA0BE0E8FEEFBA
:103B600016161706E807F907C0F012161306E40741
:103B7000F50798F0621B730B840B950B39F40A263A
:103B800061F0232B242B252B21F408950A2609F418
:103B9000A140A6958FEF811D811D089597F99F671C
:103BA00080E870E060E008959FEF80EC08959095C4
:103BB00080957095609550954095309521953F4F33
:103BC0004F4F5F4F6F4F7F4F8F4F9F4F0895002490
:103BD0000A941616170618060906089500240A9472
:103BE00012161306140605060895092E0394000CF8
:103BF00011F4882352F0BB0F40F4BF2B11F460FF87
:103C000004C06F5F7F4F8F4F9F4F089557FD9058AF
:103C1000440F551F59F05F3F71F04795880F97FB90
:103C2000991F61F09F3F79F087950895121613064A
:103C30001406551FF2CF4695F1DF08C01616170679
:103C40001806991FF1CF86957105610508940895AE
:103C5000E894BB2766277727CB0197F908950E9440
:103C6000AA1D08F48FEF08950E94471E0C94F51DBD
:103C70000E94E71D38F00E94EE1D20F0952311F000
:103C80000C94CE1D0C94D41D11240C94291E0E945A
:103C9000061E70F3959FC1F3950F50E0551F629F6C
:103CA000F001729FBB27F00DB11D639FAA27F00D95
:103CB000B11DAA1F649F6627B00DA11D661F829FBC
:103CC0002227B00DA11D621F739FB00DA11D621FA1
:103CD000839FA00D611D221F749F3327A00D611DBE
:103CE000231F849F600D211D822F762F6A2F1124A0
:103CF0009F5750409AF0F1F088234AF0EE0FFF1FD3
:103D0000BB1F661F771F881F91505040A9F79E3F29
:103D1000510580F00C94CE1D0C94291E5F3FE4F3F6
:103D2000983ED4F3869577956795B795F795E7957F
:103D30009F5FC1F7FE2B880F911D9695879597F988
:103D40000895A0E0B0E0E7EAFEE10C94401B5C01BE
:103D50006B017A016115710519F0FB019183808374
:103D6000E114F10429F0C7010297839708F0C9C054
:103D7000E5012196F5011081812F90E00E946E20CF
:103D8000892B11F05E01F4CF1D3229F42196F50143
:103D9000118101E007C01B3221F4E5012296F501F3
:103DA000118100E0E114F104B1F0F0E1EF16F1044B
:103DB00029F4B0C010E3E114F10401F12AE0E216A5
:103DC000F104B1F180E1E816F10471F0E8E0EE16DB
:103DD000F104F1F413C0103341F588818F7D8835EB
:103DE00049F7198122960260F0E1EF2EF12C882428
:103DF0008A94982CA82CAFE0BA2E20C078E0E72E49
:103E0000F12C88248A94982CA82CEFE1BE2E16C0A1
:103E10006FEF7FEFCB0197010F2C000C440B550B7C
:103E20000E94561A49015A0109C08AE0E82EF12C75
:103E300069E9862E982CA82C69E1B62E40E060E056
:103E400070E0CB0127010F2C000C66087708FE01FB
:103E500050ED352E310E29E0231570F42FEB210F94
:103E60002A3118F439EC332E06C02FE9210F2A31FC
:103E700030F529EA322E310E232D30E02E153F0584
:103E8000F4F44F3FC9F086169706A806B90688F0E5
:103E9000A30192010E941222232D30E040E050E065
:103EA000620F731F841F951F62177307840795079E
:103EB00010F44FEF01C041E021961081C8CFC1142A
:103EC000D10451F0442311F0219703C001FF04C035
:103ED0002297F601D183C08300FF07C0909580959B
:103EE000709561957F4F8F4F9F4F4F3F79F482E2DE
:103EF00090E09093B7068093B6063FEF2FEF9FEFC9
:103F00000DC040E030E020E090E008C0462F372FA1
:103F1000282F04C0103309F067CF5FCF642F732FB1
:103F2000822FCDB7DEB7E1E10C945C1B283008F09E
:103F300027E03327DA01990F311D87FD9160009644
:103F40006105710539F432602E5F3D9330E32A95A7
:103F5000E1F708959F3F30F080387105610509F061
:103F60003C5F3C5F3D93913008F08068911DDF938A
:103F7000CF931F930F93FF92EF92192F987F9695EF
:103F8000E92F96959695E90FFF27E25FFE4F992757
:103F90003327EE24FF24A701E70105900894079436
:103FA00028F4360FE71EF81E491F511D660F771FB4
:103FB000881F991F0694A1F70590079428F4E70E2F
:103FC000F81E491F561FC11D770F881F991F661FB6
:103FD0000694A1F70590079428F4F80E491F561F80
:103FE000C71FD11D880F991F661F771F0694A1F761
:103FF0000590079420F4490F561FC71FD81F990F2B
:10400000661F771F881F0694A9F784911095177073
:1040100041F0D695C79557954795F794E7941A952B
:10402000C1F7E4EBF0E06894159015913591659136
:10403000959105907FE27395E118F10A430B560BB9
:10404000C90BD009C0F7E10CF11E431F561FC91F51
:10405000D01D7EF4703311F48A95E6CFE8940150B8
:1040600030F0080F0AF40027021708F4202F2395D8
:10407000022F7A3328F079E37D932A95E9F710C06F
:104080007D932A9589F606949795679537951795A8
:104090001794E118F10A430B560BC90BD00998F09D
:1040A00023957E9173957A3308F070E37C93201307
:1040B000B8F77E9170617D9330F0839571E37D93C5
:1040C00070E32A95E1F71124EF90FF900F911F9173
:1040D000CF91DF91992787FD9095089591110C94C8
:1040E000C721803219F089508550C8F70895FC0126
:1040F0000590615070400110D8F7809590958E0F13
:104100009F1F0895DC0101C06D9341505040E0F7BE
:104110000895FB01DC018D91019080190110D9F304
:10412000990B0895FB01DC014150504030F08D9116
:104130000190801919F40020B9F7881B990B089594
:10414000FC016150704001900110D8F78095909566
:104150008E0F9F1F0895A0E0B0E0E1EBF0E20C9419
:104160004F1BAE01475F5F4F6F8178858D819E81C8
:104170000E944E10E2E00C946B1B0F931F93CF93A1
:10418000DF93FB01238121FD03C08FEF9FEF2CC044
:1041900022FF16C04681578124813581421753077B
:1041A00044F4A081B1819D012F5F3F4F3183208373
:1041B0008C93268137812F5F3F4F3783268314C02E
:1041C0008B01EC01FB010084F185E02D0995892B21
:1041D000E1F6D80116968D919C9117970196179646
:1041E0009C938E931697CE01DF91CF911F910F91E3
:1041F0000895EF92FF920F931F93CF93DF93DB010C
:1042000013962C9121FF18C08B017C01D0E0C0E0F7
:10421000F70181917F01882361F0D8011896ED9113
:10422000FC911997B8010995892B91F3DFEFCFEF36
:10423000EFCF8D2F9C2F02C08FEF9FEFCDB7DEB752
:10424000E6E00C94671BA0E0B0E0E9E2F1E20C9438
:104250004F1BAE014B5F5F4FFA0161917191AF014E
:104260008091BA069091BB060E944E10E2E00C9439
:104270006B1B0F931F93CF93DF93E091BA06F091DE
:10428000BB06238121FF1BC08C01D0E0C0E0F801F8
:1042900081918F016091BA067091BB06DB0118967F
:1042A000ED91FC911997882331F00995892B79F3C9
:1042B000DFEFCFEFECCF8AE00995892B19F08FEF74
:1042C0009FEF02C08D2F9C2FDF91CF911F910F91F7
:1042D0000895FA01AA27283051F1203181F1E8949C
:1042E0006F936E7F6E5F7F4F8F4F9F4FAF4FB1E0E9
:1042F0003ED0B4E03CD0670F781F891F9A1FA11DE4
:10430000680F791F8A1F911DA11D6A0F711D811DE4
:10431000911DA11D20D009F468943F912AE0269FA9
:1043200011243019305D3193DEF6CF010895462F08
:104330004770405D4193B3E00FD0C9F7F6CF462FE9
:104340004F70405D4A3318F0495D31FD4052419352
:1043500002D0A9F7EACFB4E0A6959795879577950F
:104360006795BA95C9F700976105710508959B0196
:10437000AC010A2E06945795479537952795BA951F
:10438000C9F7620F731F841F951FA01D08959927F9
:1043900088270895F999FECF92BD81BDF89A992793
:1043A00080B50895A6E1B0E044E050E00C9404220A
:1043B000A8E1B0E042E050E00C940422262FF999E5
:1043C000FECF92BD81BDF89A019700B4021639F074
:1043D0001FBA20BD0FB6F894FA9AF99A0FBE089545
:1043E0000396272F0E94DF210E94DE21252F0E94A5
:1043F000DF21242F0C94DF210196272F0E94DF213B
:104400000C94DE21DC01CB01FC01F999FECF06C042
:10441000F2BDE1BDF89A319600B40D924150504082
:10442000B8F70895DB018F939F930E942222BF91DA
:10443000AF91A29F800D911DA39F900DB29F900DF3
:10444000112408950E94781AA59F900DB49F900D95
:0E445000A49F800D911D11240895F894FFCFB4
:10445E0000000002000000002902000000009C0481
:10446E000000240023002500A004010024002300E6
:10447E002500A4040200240023002500A804030044
:10448E00240023002500EF03040024002300250050
:10449E000404050024002300250011040600240056
:1044AE0023002500AC040700240023002500B004DF
:1044BE000000270026002800B40401002700260073
:1044CE002800B8040200270026002800BC040300C0
:1044DE00270026002800C00404002700260028001C
:1044EE00C40405002700260028001E04060027002D
:1044FE0026002800F7030700270026002800C8041E
:10450E0000002A0029002B00CC0401002A002900FB
:10451E002B00D00402002A0029002B00D404030033
:10452E002A0029002B00D80404002A0029002B00A1
:10453E00DC0405002A0029002B00E00406002A00F6
:10454E0029002B00E40407002A0029002B00E804B0
:10455E0000002D002C002E00EC0401002D002C007C
:10456E002E00F00402002D002C002E00F404030097
:10457E002D002C002E00F80404002D002C002E001F
:10458E00FC0405002D002C002E00000506002D0059
:10459E002C002E00040507002D002C002E00D40345
:1045AE00000030002F003100F303010030002F0017
:1045BE0031000805020030002F0031000C05030009
:1045CE0030002F0031000004040030002F003100B5
:1045DE000D04050030002F0031001A0406003000D3
:1045EE002F0031001005070030002F0031000000B1
:1045FE000003000000009A0A920A00009E040800C0
:10460E004400450046006E003500470040804800DB
:10461E00102000000000000000000000000000005C
:10462E000000000000000000000000A20410008046
:10463E000081008200840086006F003600010204B3
:10464E0001020810880040808A0010208C000408A7
:10465E0000000000000000000000AA0410009000FE
:10466E00910092009400960071003800010204013E
:10467E00020810980040809A0010209C0004080048
:10468E00000000000000000000F1030A00C000C19D
:10469E0000C200C300C400BE0072003900D4000185
:1046AE000204080102020101CF004080D000102058
:1046BE00D1000000D2000408C800C900CA00CE0014
:1046CE00CC00CD00802000180600831000000104ED
:1046DE001000000182080000010000000000000030
:1046EE0000000000A8610000E8030000881348E8FD
:1046FE000100400D0300808D5B00EB00C409AC0D82
:10470E0010270200040000000000034661696C657A
:10471E006420746F2066696E642074696D65722002
:10472E0025730A00504630004661696C656420743A
:10473E006F2066696E642070696E2025730A0050C2
:10474E004234005046310050433700504F5742001C
:10475E0050463400504235004350554600504635C1
:10476E000050423600494E544600504636005043E3
:10477E0036004558484600496F0054414348000DE5
:10478E000A253034580D0A0044555459000D0A4577
:10479E0052524F520D0A000D0A4F4B0D0A00527520
:1047AE006E6E696E67205468656C696F20647269FD
:1047BE007665722E205072657373204354524C2DC1
:1047CE004320746F206578697400256C64203E2048
:1047DE00313030300A0045786974696E672054684C
:1047EE00656C696F206472697665720050423000A4
:1047FE005042310050423200504233005042370096
:10480E005043300050433100504332005043330088
:10481E005043340050433500504430005044310072
:10482E00504432005044330050443400504435005C
:10483E00504436005044370050453000504531004A
:10484E005045320050453300504534005045350038
:10485E005045360050453700504632005046330022
:04486E005046370079
:00000001FF
